:100000000C9434050C9451050C9451050C94510535
:100010000C9451050C9451050C9451050C946421D9
:100020000C9451050C9451050C9451050C943222FA
:100030000C9451050C9451050C9451050C945105E8
:100040000C9451050C9451050C9482240C94510588
:100050000C9451050C94FE0B0C9451050C94510515
:100060000C9451050C945105736D733D6C6F7720A2
:100070006261740042617474657279204C4F57213B
:10008000212100636865636B206261747465727915
:100090000045787465726E616C20706F77657220B0
:1000A0006973206F666600736D733D706F7765725C
:1000B0005F6F666600706F7765722D2D2D00457835
:1000C0007465726E616C20706F7765722069732041
:1000D0006F6E00736D733D706F776572206F6E0089
:1000E000706F7765722B2B2B004261747465727987
:1000F0003D256425252C20007369676E616C5F6760
:10010000736D3D256425253B006D63753D25753B6D
:100110000074656D703D2564433B006775617264D2
:100120003D25643B00743D25756425756825756D16
:100130002575733B006465706F7369743D25733B6F
:1001400000416C61726D2120496E7465726E616C44
:100150002054454D5045524154555245203E20367D
:1001600035432021212100416C61726D2120496EAF
:100170007465726E616C2054454D50455241545522
:10018000524521212100416C61726D212054454D61
:10019000504552415455524521212100416C617214
:1001A0006D212054454D5045524154555245212111
:1001B0002100426174746572793D256425252C20E7
:1001C000007273745F6D63753D25753B0047534D39
:1001D0003D256425253B0054656D705F6578743D51
:1001E0002564433B0054656D705F696E743D256402
:1001F000433B0047756172643D25643B0044657074
:100200006F7369743D25733B00464C41475F414C19
:1002100041524D5F534F530D0A00414C41524D2105
:1002200020496E766173696F6E21212100616C61D6
:10023000726D2E2E2E4558545F4D4F540D0A0041BD
:100240004C41524D2120496E766173696F6E2121B8
:100250002100616C61726D2E2E2E444F4F520D0A9B
:1002600000414C41524D2120496E766173696F6E99
:1002700021212100616C61726D2E2E2E53494E4753
:100280004C450D0A00727374206D6F74696F6E00B7
:10029000464C41475F414C41524D5F4558545F4D7C
:1002A0004F540D0A006578745F66697273745F6DF0
:1002B0006F74696F6E00464C41475F414C41524D2F
:1002C0005F444F4F520D0A00727374206D6F746952
:1002D0006F6E00464C41475F414C41524D5F534960
:1002E0004E474C450D0A0073696E676C655F666921
:1002F0007273745F6D6F74696F6E004775617264BD
:10030000206973206F6E20627920627574746F6E3D
:100310002E004F4E0054656D706572617475726584
:100320002073656E736F72206465746563746564B1
:100330002E004572726F722121212054656D706507
:100340007261747572652073656E736F72210065DA
:100350006570726F6D5F66697273745F7365740048
:100360004465706F736974203C20313020525542CF
:10037000004465706F736974203C203130207275C1
:100380006200220D0A002A313031230041542B43F0
:100390005553443D312C220041542B444445543D97
:1003A000312C35302C302C310D0A0041542B435068
:1003B0004D533D22534D222C22534D222C22534D7E
:1003C000220D0A0041542B434C49503D310D0A0087
:1003D00041542B434E4D493D322C312C302C312C85
:1003E000300D0A0041542B434D47463D310D0A0064
:1003F000415445300D0A0041540D0A004154410D4D
:100400000A0041542B434D4744413D2244454C2072
:10041000414C4C220D0A0041542B434D47443D258D
:10042000640D0A0041542B434D474C3D2252454335
:1004300020554E52454144220D0A0064656C5F739D
:100440006D735F696E640041542B434D47443D25F5
:10045000640D0A0041542B434D53533D25642C2217
:100460002573220D0A0041542B434D474C3D225326
:10047000544F20554E53454E54220D0A002B4454E0
:100480004D463A002B434C49503A002B434D5449BA
:100490003A0041542B434D47533D222573220D0A08
:1004A0000041542B434D47573D222573220D0A002E
:1004B0004552524F520041542B434D47533D222544
:1004C00073220D0A0041542B4353510D002B43520C
:1004D00045473A0041542B435245473F0D0A006EB1
:1004E0006F74207265672067736D004154480D0A70
:1004F0000077616974207374722074696D6520657A
:100500006E64002B44544D463A004552524F5200FF
:100510002B434C43433A0041542B434C43430D0A75
:10052000000D0A002E616D72222C302C3130302CDF
:100530000041542B435245433D342C22433A5C55F1
:100540007365725C0041542B435245433D350D0A9F
:10055000004552524F5200636D642074696D6520EE
:10056000656E6400414C41524D21204D6F74696F9E
:100570006E2120696E7400414C41524D2120496E1C
:10058000766173696F6E2120446F6F7200414C4138
:10059000524D21204D6F74696F6E21206578740073
:1005A0004E6F20616E73776572210043616C6C2021
:1005B000656E6465640043414C4C5F4F55545F4425
:1005C00049414C202E2E2E200041544425733B0DD2
:1005D0000A00496E6974204F6B0073657475705F13
:1005E0006F6B0053746172742E2E2E006578745FE9
:1005F00074656D703D25643B006578745F74656D4E
:10060000703B006163636570745F736D733D256457
:100610003B006163636570745F736D733B0061637E
:10062000636570745F63616C6C733D25643B00614E
:1006300063636570745F63616C6C733B00617574B8
:100640006F67756172643D25643B006175746F6707
:10065000756172643B0070617573655F616C617296
:100660006D3D2575733B0070617573655F616C61ED
:10067000726D3B00696E74657276616C5F61667461
:1006800065725F627574746F6E5F6D3D25756D3B4D
:1006900000696E74657276616C3B003B0025732CBB
:1006A0000070686F6E65733D0070686F6E65733BB8
:1006B0000062757A7A65723D006578745F74656D65
:1006C000703D0067756172645F7265706F72743D32
:1006D00000706F7765725F7265706F72743D007342
:1006E0006D733D0063616C6C733D006175746F6781
:1006F000756172643D0066697273746D3D00677563
:100700006172643D00696E74657276616C3D007063
:10071000617573655F616C61726D3D004163636516
:1007200073732064656E6965640053657420616449
:100730006D696E73206F6B005365742061646D6921
:100740006E73206F6B0070686F6E65733D00416360
:10075000636573732064656E696564007265706FAC
:1007600072743B004163636573732064656E6965F1
:10077000640068656C707365743B00416363657306
:10078000732064656E6965640068656C7067657484
:100790003B004163636573732064656E6965640043
:1007A00068656C703B00526573657420636F6D6D96
:1007B000616E642061636365707465642E004163DB
:1007C000636573732064656E696564007265626F4A
:1007D0006F743B0044657669636520726573657468
:1007E0002064656661756C742C2073656E643A20B4
:1007F00070686F6E65733D4E554D4245525F50486F
:100800004F4E4553312C4E554D4245525F50484F47
:100810004E4553323B004163636573732064656EDC
:1008200069656400726573657464656661756C748E
:100830003B006572726F720073656E645F736D73F7
:100840000D0A004163636573732064656E696564B6
:10085000006765743A006572726F72006F6B0041D9
:1008600063636573732064656E69656400736574A2
:100870003A006E6F742070686F6E650070686F6EFE
:1008800065206F6B007365743A696E74657276618A
:100890006C3D3B63616C6C733D3B736D733D3B67BB
:1008A000756172643D3B6175746F67756172643D1B
:1008B0003B706F7765725F7265706F72743D3B62FB
:1008C000757A7A65723D3B67756172645F726570B7
:1008D0006F72743D3B6578745F74656D703D3B006D
:1008E0000000000000000000000000000000000008
:1008F00000000000000000000000000000000000F8
:1009000000000000000000000000000000000000E7
:1009100000000000000000000000000000000000D7
:100920000000000000006765743A70686F6E6573C0
:100930003B63616C6C733B736D733B696E74657282
:1009400076616C3B706F7765725F7265706F727401
:100950003B6578745F74656D703B000000000000BB
:100960000000000000000000000000000000000087
:100970000000000000000000000000000000000077
:100980000000000000000000000000000000000067
:100990000000000000000000000000000000000057
:1009A0000000000000000000000000000000000047
:1009B0000000000000000000000000000000000037
:1009C0000000000000000068656C707365743B688F
:1009D000656C706765743B7265706F72743B7068AC
:1009E0006F6E65733B7265626F6F743B72657365A2
:1009F0007464656661756C743B0000000000000063
:100A000000000000000000000000000000000000E6
:100A100000000000000000000000000000000000D6
:100A200000000000000000000000000000000000C6
:100A300000000000000000000000000000000000B6
:100A400000000000000000000000000000000000A6
:100A50000000000000000000000000000000000096
:100A6000000000000000000011241FBECFEFD8E0FE
:100A7000DEBFCDBF11E0A0E0B1E0E0EEFCE502C0DA
:100A800005900D92A83EB107D9F724E0A8EEB1E099
:100A900001C01D92AC3AB207E1F70E9427250C94E1
:100AA000652E0C940000F894209A84E793E0019757
:100AB000F1F700C0209895E09A95F1F784E618992F
:100AC00007C093B1892F817090FFFBCF7894089570
:100AD00092E09A95F1F700C0815089F7F7CFF8942A
:100AE00098E0209A80FF0DC02FE02A95F1F720981A
:100AF0002DE92A95F1F700008695915091F77894A9
:100B0000089523E92A95F1F700C0209828E12A9555
:100B1000F1F700C0F1CFF894209A85E08A95F1F7BB
:100B200020989CE09A95F1F7000083B194EC9A9597
:100B3000F1F700C07894817008950F931F93CF93BD
:100B4000DF93F89408E010E0D0E0C0E0D695C795B8
:100B50000E948B058111C06801501109B9F7789482
:100B60008C2FDF91CF911F910F910895CF930E9409
:100B700053058CEC0E946F0584E40E946F05189B5E
:100B8000FECF0E9453058CEC0E946F058EEB0E94F5
:100B90006F050E949D05C82F0E949D05282F87FF85
:100BA00002C0C195209535E0C39FC0011124922B4E
:100BB0006AE070E00E94F325862FCF910895CF92CE
:100BC000DF92EF92FF92CF93DF9300D000D0CDB7AA
:100BD000DEB70E94E90F81113DC00E946A247C01AA
:100BE0000E94FE0F811109C02FEFE216F20629F0D4
:100BF00081E00E94FB0F0E94CF0F0E9404103CE393
:100C0000839FC00111248E159F0520F5EF20E094ED
:100C100009F181E00E94EC0F82E193E00E94E7215C
:100C20000E94CF0F8FEF9FEF0E94622486E990E031
:100C30000E9427228CE291E00E94A52386E990E0A1
:100C40000E9427220E94F20F813021F48BEF92E064
:100C50000E9462150E94E90F8983813009F07DC1ED
:100C60000E94871B882309F4A4C080910802811187
:100C7000A0C00E94F80F81117DC08091FF018111F9
:100C8000B0C059815093FF010E94132487EE92E077
:100C90000E94E7210E941D1C882319F180910802FF
:100CA00081111FC00E9413240E945D236B017C01EF
:100CB0000E942610C80ED11CE11CF11CC092040237
:100CC000D0920502E0920602F092070281E0809342
:100CD000080284EF91E00E94272286EB92E00E94B6
:100CE000E7210E94401C882309F4A9C080910802D2
:100CF0008111A5C00E94F80F811182C08091FE0170
:100D00008111B5C081E08093FE0180E00E94132430
:100D100085EA92E00E94E72180910802882309F485
:100D2000CDC00E9426108111B1C0809108028B3085
:100D300009F0CFC084E792E00E94E7210E94DA0F19
:100D4000813041F483E191E00E943A1580ED97E013
:100D50000E94A5230E94E00F813021F481E692E0F9
:100D60000E94621580E00E94EC0F0E94CF0F10924B
:100D70000802A4C01092FF010E945D236B017C0158
:100D80000E942610C80ED11CE11CF11CC092040266
:100D9000D0920502E0920602F09207028BE0809367
:100DA000080284EF91E00E94272283ED92E00E94E6
:100DB000E7218091FF01813009F06CCF0E9422244D
:100DC00069837A838B839C836930710581059105E2
:100DD00008F460CF88EC92E00E94E7211092FF01B6
:100DE00059CF813049F60E94222469837A838B830C
:100DF0009C83623071058105910508F0BDCF4ACF13
:100E00001092FE010E945D236B017C010E9426105E
:100E1000C80ED11CE11CF11CC0920402D092050244
:100E2000E0920602F092070282E08093080284EFCB
:100E300091E00E94272280E992E00E94E7218091C0
:100E4000FE01813009F068CF0E94222469837A83F1
:100E50008B839C83693071058105910508F45CCF13
:100E600085E892E00E94E7211092FE0155CF813083
:100E700049F60E94222469837A838B839C836230A3
:100E800071058105910508F0BDCF46CF0E945D2315
:100E900069837A838B839C838091040290910502FD
:100EA000A0910602B091070229813A814B815C81B1
:100EB000281739074A075B0708F037CF0F900F90C4
:100EC0000F900F90DF91CF91FF90EF90DF90CF9038
:100ED0000895813049F582E592E00E94E7210E9461
:100EE000DA0F813041F48DE191E00E943A1580EDF6
:100EF00097E00E94A5230E94E00F813021F48FE348
:100F000092E00E9462151092080280E00E94EC0FAD
:100F10000F900F900F900F90DF91CF91FF90EF9077
:100F2000DF90CF900C94CF0F823041F68DE292E0AB
:100F30000E94E7210E94DA0F813041F483E191E0C1
:100F40000E943A1580ED97E00E94A5230E94E00FD1
:100F50008130C9F68AE192E0D4CF809108028C30CA
:100F600009F005CF89E092E00E94E7211092080283
:100F700085E291E00E943A15FACE80930802089526
:100F80009FB7F894809108029FBF0895CF93DF9395
:100F900000D000D0CDB7DEB7809100029091010261
:100FA000A0910202B0910302BC01CD010F900F90FD
:100FB0000F900F90DF91CF910895ECE7F0E08081E2
:100FC000806C8083EAE7F0E08081866080838081A6
:100FD0008E7F80830895CF93DF9300D000D00F924F
:100FE000CDB7DEB78D8380917C00807F80937C00BD
:100FF0004D81493008F073C0E42FF0E0E959F14D1C
:1010000080917C000C944826816080937C008091C4
:101010007A00806880937A0080917A00886080935B
:101020007A0083B7826083BF84E190E00E94A523A9
:1010300080917A00806480937A0080917A0086FDA6
:10104000FCCF8EE119821A821B821C8293B79160B9
:1010500093BF90917A0096FDFCCF93B79E7F93BF8C
:10106000F8942091780030917900789449815A81E0
:101070006B817C81420F531F611D711D49835A830F
:101080006B837C83815011F780917A008F778093F6
:101090007A005D81583039F569817A818B819C8134
:1010A0002EE130E040E050E00E94292625523140F8
:1010B000C9010F900F900F900F900F90DF91CF917B
:1010C00008958260A2CF8360A0CF84609ECF8560A8
:1010D0009CCF86609ACF876098CF886096CF8091AA
:1010E0007C00807F92CF6D8130E020E06111E0CF05
:1010F00069817A818B819C812EE130E040E050E073
:101100000E942926D5CF0F9380E00E94EB079C0117
:10111000263282E0380734F481E00E94081980E02A
:101120000F910895C901813822E0920714F080E8F8
:1011300092E004E620E040E852E066E272E00E94BD
:10114000D110EECF4F925F926F927F928F929F92CB
:10115000AF92BF92CF92DF92EF92FF920F931F93C5
:10116000CF93DF93CDB7DEB7C45AD1090FB6F89449
:10117000DEBF0FBECDBF0E94422420E831E541E032
:1011800050E00E940726722E632E20E13EE040E0F0
:1011900050E00E940726522E432ECF55DF4F688322
:1011A00079838A839B83C15AD0402CE330E040E0AE
:1011B00050E00E94072649012CE3289DC001299D8B
:1011C000900D1124CF55DF4FC880D980C15AD0402F
:1011D000C81AD90A0E941C1B9F938F9385E391E044
:1011E0009F938F93CE0101967C019F938F930E94D2
:1011F000042B8701080F191FDF92CF929F928F92C5
:101200004F925F926F927F9285E291E09F938F93CE
:101210001F930F930E94042B080F191F0E94E90FC0
:101220001F928F938BE191E09F938F931F930F9366
:101230000E94042B080F191F0E94E60D282F082E6C
:10124000000C330B3F938F9381E191E09F938F9339
:101250001F930F930E94042B080F191F0E940A105E
:101260001F928F9389E091E09F938F931F930F9329
:101270000E94042B080F191F0FB6F894DEBF0FBE93
:10128000CDBF0E947F111F928F9388EF90E09F93B4
:101290008F931F930F930E94042B6C010F900F905C
:1012A0000F900F900F900F9080910002909101028B
:1012B000A0910202B0910302892B8A2B8B2BA1F003
:1012C0000E9483081F928F9389EE90E09F938F93E3
:1012D0000C0D1D1D1F930F930E94042B0F900F9058
:1012E0000F900F900F900F90C7010E94D821CC55FE
:1012F000DF4F0FB6F894DEBF0FBECDBFDF91CF91A9
:101300001F910F91FF90EF90DF90CF90BF90AF9023
:101310009F908F907F906F905F904F900895CF93A4
:10132000DF9300D000D00F92CDB7DEB780910002DE
:1013300090910102A0910202B0910302892B8A2BA5
:101340008B2B09F065C00E94E30F813009F058C073
:101350009091F801911108C08093F8011092F70163
:1013600080EE90E00E94E72180910101811142C04E
:101370000E945D23DC01CB0188589F4FAF4FBF4FC8
:101380008093F3019093F401A093F501B093F601DB
:1013900081E0809301018093F2010E945D236983C3
:1013A0007A838B839C838091F3019091F401A091C7
:1013B000F501B091F60129813A814B815C81821758
:1013C0009307A407B507E0F41092F20181E080933F
:1013D00000011092F10183ED90E00E94E7218EEB75
:1013E00090E00F900F900F900F900F90DF91CF91A2
:1013F0000C9462159091F201913011F4813069F2F0
:101400000F900F900F900F900F90DF91CF91089554
:101410000E94E30F8130A1F72FB7F894809100026A
:1014200090910102A0910202B09103022FBF80931C
:10143000ED019093EE01A093EF01B093F0010E94B3
:101440005D23DC01CB0188589F4FAF4FBF4F809386
:10145000F3019093F401A093F501B093F60180910C
:10146000F801813031F41092F80185EB90E00E9490
:10147000E72180910001813069F48091ED01909124
:10148000EE01A091EF01B091F00189379105A1051E
:10149000B10520F48091EC01813089F41092EC01C7
:1014A000109201011092000181E08093F70187EA18
:1014B00090E00E94E72181E990E00E94621530915E
:1014C000F7013D83313009F09BCF0E945D23698392
:1014D0007A838B839C838091E8019091E901A091AC
:1014E000EA01B091EB0129813A814B815C8182173D
:1014F0009307A407B50708F083CF83E890E00E9424
:10150000E7210E945D2369837A838B839C83DC01BE
:10151000CB01865A9F4FAF4FBF4F8093E801909306
:10152000E901A093EA01B093EB010E9483088431A2
:1015300008F066CF8091F101811162CF3D81309337
:10154000F1010E94E00F813021F484E790E00E94D5
:10155000621588E690E00F900F900F900F900F901B
:10156000DF91CF910C94E721AF92BF92CF92DF929F
:10157000EF92FF920F931F93CF93DF93CDB7DEB718
:10158000C05AD1090FB6F894DEBF0FBECDBF6C01B3
:101590000E947E190E941C1B9F938F938DEF91E0F8
:1015A0009F938F939E012F5F3F4F79013F932F931E
:1015B0000E94042B8701080F191F0E94E90F1F9238
:1015C0008F9383EF91E09F938F931F930F930E94CC
:1015D000042B080F191F88E00E94EB079F938F933D
:1015E00085EE91E09F938F931F930F930E94042B9E
:1015F000080F191F0E942F100FB6F894DEBF0FBE00
:10160000CDBFBE2CAF2C8130C1F40E94E60D282F37
:10161000082E000C330B3F938F9387ED91E09F933F
:101620008F931F930F930E94042B080F191F0F9085
:101630000F900F900F900F900F900E947F111F92AC
:101640008F938DEC91E09F938F931F930F930E9444
:10165000042B080F191F0E940A101F928F9381EC10
:1016600091E09F938F931F930F930E94042B7C0113
:101670000FB6F894DEBF0FBECDBF809100029091EF
:101680000102A0910202B0910302892B8A2B8B2BBD
:10169000A1F00E9483081F928F9382EB91E09F93A9
:1016A0008F930E0D1F1D1F930F930E94042B0F90FD
:1016B0000F900F900F900F900F90B6018B2D9A2DD9
:1016C0000E948C15C056DF4F0FB6F894DEBF0FBED8
:1016D000CDBFDF91CF911F910F91FF90EF90DF90E1
:1016E000CF90BF90AF900895CF93DF9300D000D0FC
:1016F000CDB7DEB78091FD01813009F46BC00E9447
:10170000631C882359F081E08093FD018EE291E013
:101710000E94D82184EF91E00E9427220E945D233D
:1017200069837A838B839C838091F9019091FA017C
:10173000A091FB01B091FC010596A11DB11D29816D
:101740003A814B815C8182179307A407B50708F0A3
:1017500041C00E945D236093F9017093FA01809368
:10176000FB019093FC010E942F1089838130B9F412
:101770000E94E60D82349CF039813093FD018CE9A2
:1017800091E00E94E72180E69AEE0E9414228EE307
:1017900091E00E943A1586E891E00E94621588E087
:1017A0000E94EB0782349105ACF081E08093FD014B
:1017B00087E691E00E94E72180E69AEE0E941422DB
:1017C00081E491E00F900F900F900F90DF91CF91F7
:1017D0000C9462150F900F900F900F90DF91CF91A6
:1017E000089580E00E94EB07863292400CF0089545
:1017F0000E949D2385E00E94D323F3CF18954A9938
:1018000014C08091000290910102A0910202B09157
:1018100003020196A11DB11D809300029093010265
:10182000A0930202B0930302089580E090E0DC01EF
:10183000F3CF0E948A1B8823F9F080E00E941A10DF
:101840000E94CF0F84E690E00E94272284E690E079
:101850000E94A52384E690E00E94272284E690E07F
:101860000E94A52384E690E00E94272284E690E06F
:101870000E94A523F894FFCF08950F931F93CF9351
:10188000DF93CDB7DEB72A970FB6F894DEBF0FBE51
:10189000CDBFCE0101962091A6043091A7048C0102
:1018A0002115310511F42CEA34E04AE0B801821B1D
:1018B000930B0E94B42A86E491E00E94CC21C801D7
:1018C0000E94D8212A960FB6F894DEBF0FBECDBF76
:1018D000DF91CF911F910F910895282FE82FF92FB5
:1018E00080E09191892798E03CE8869508F4832769
:1018F0009A95D9F79E2F921B961798F30895FC019D
:10190000A081B1818E91928121E030E0A90101C0D6
:10191000440F9A95EAF7842B8C9384E793E0019720
:10192000F1F700C0A081B1814E918281B90102C05E
:10193000660F771F8A95E2F7CB01809584238C93FD
:1019400074EC7A95F1F700C0A081B18112978C9167
:10195000928101C0220F9A95EAF78223E1EEF2E02C
:101960003197F1F7000008950F931F93CF93DF9302
:10197000FC0128E030E041E0A1E0B0E0C081D1818D
:101980008A9192818D0101C0000F9A95EAF7802B10
:101990008883862F8423F1F005E20A95F1F7C08150
:1019A000D1815A9182818D0102C0000F111F8A9549
:1019B000E2F7C8018095852388831EE61A95F1F722
:1019C00000C0440F21503109C9F6DF91CF911F911A
:1019D0000F91089583E98A95F1F700C0C081D18104
:1019E0005A9182818D0102C0000F111F8A95E2F782
:1019F000C801809585238883E4CF0F931F93CF93ED
:101A0000DF93FC0148E050E091E080E061E070E0AD
:101A1000A081B1812E913281EB0101C0CC0F3A95AA
:101A2000EAF72C2B2C931AE01A95F1F7A081B181DB
:101A3000CE9122818B0102C0000F111F2A95E2F77F
:101A4000980120952C232C9313E11A95F1F700C0EF
:101A5000A081B18112972C9130E0A28102C035950E
:101A60002795AA95E2F720FD0CC026E72A95F1F705
:101A7000990F4150510961F6DF91CF911F910F915C
:101A8000089536E73A95F1F7892BF2CFCF92DF929E
:101A9000EF92FF920F931F93CF93C3E085E2E82E5E
:101AA000F12C94E1C92E92E0D92EF0920A02E09234
:101AB000090210920B022898E0910902F0910A02A3
:101AC00082918E7F808389E092E00E947F0C811159
:101AD0006FC063E389E092E00E94B40C0CE012E076
:101AE00089E092E00E94FD0CF80181938F01CE16EF
:101AF000DF06B1F767E08CE092E00E946D0C9091F8
:101B00001302891355C080910C02803109F44BC037
:101B1000883209F04DC081E090E090931E028093DE
:101B20001D028FE18093180285E193E00E94E72176
:101B300080911D0290911E02019719F48FE180930C
:101B4000180289E092E00E947F0C6CEC89E092E040
:101B50000E94B40C6EE489E092E00E94B40C6091A3
:101B6000160289E092E00E94B40C6091170289E0AD
:101B700092E00E94B40C80911D0290911E02019788
:101B8000E9F46091180289E092E0CF911F910F91E2
:101B9000FF90EF90DF90CF900C94B40C88EE93E020
:101BA0000E94A52382CF10921E0210921D02BCCF6C
:101BB00082E393E00E94E721C15081F7CF911F910A
:101BC0000F91FF90EF90DF90CF900895FF920F93C9
:101BD0001F93CF93DF9300D000D000D0CDB7DEB7F6
:101BE0000E94460D89E092E00E947F0C6CEC89E037
:101BF00092E00E94B40C64E489E092E00E94B40C8C
:101C0000809118028F3309F457C08F3509F45CC0F6
:101C10008F3109F063C020E73DE142E021503040C0
:101C20004040E1F700C089E092E00E947F0C6CEC3C
:101C300089E092E00E94B40C6EEB89E092E00E9491
:101C4000B40C44E152E05A8349830DE112E089E08B
:101C500092E00E94FD0CA981BA818D93BA83A98379
:101C60000A171B07A1F768E084E192E00E946D0C5F
:101C700090911C02891345C020911402822F9091EB
:101C800015021FEF97FF11E040911D0250911E02B7
:101C9000452B61F5822F220F990BAA0BBB0B898371
:101CA0009A83AB83BC83BC01CD010E94862620E0D1
:101CB00030E040E05FE35AC051EE8AE394E05150D7
:101CC00080409040E1F7AFCFAFEFBFE6E8E0A15032
:101CD000B040E040E1F700C00000A5CFFFEF2FEDDE
:101CE00030E1F15020403040E1F7F5CF309118025B
:101CF0003F3509F45CC038F43F3109F476C03F3316
:101D0000B1F060E047C03F37E1F7822F220F990B17
:101D1000AA0BBB0B89839A83AB83BC83BC01CD0127
:101D20000E94862620E030E040E85DE31FC097FF78
:101D300003C091958195910995958795959587957E
:101D4000AC0114039001159F300D1124C901330F0C
:101D5000AA0BBB0B89839A83AB83BC83BC01CD01E7
:101D60000E94862620E030E040E85EE369837A83C3
:101D70008B839C8369817A818B819C810E94EA2676
:101D800069837A838B839C8369817A818B819C812F
:101D90000E944E26862F26960FB6F894DEBF0FBE01
:101DA000CDBFDF91CF911F910F91FF90089597FFC5
:101DB00003C091958195910995958795AC01140380
:101DC0009001159F300D1124C901330FAA0BBB0BD5
:101DD00089839A83AB83BC83BC01CD010E94862694
:101DE00020E030E040E05EE3C1CF97FF03C0919573
:101DF000819591099C01990F440B550B29833A83D6
:101E00004B835C83CA01B9010E94862620E030E042
:101E100040E05EE369837A838B839C8369817A8166
:101E20008B819C810E94EA26F62E072F8E839D834C
:101E3000812F110F990BAA0BBB0B89839A83AB835C
:101E4000BC83BC01CD010E9486269B01AC01F982B6
:101E50000A839E819B83AD81AC8369817A818B816A
:101E60009C810E94EA2623CF9C018FB7F894F999B0
:101E7000FECF32BD21BD60BD94E09FBB92E09FBB11
:101E80008FBF08959C01F999FECF32BD21BDF89A0C
:101E900080B50895EF92FF920F931F93CF93DF9336
:101EA000EC01CA018E01060F171FC017D10739F4C4
:101EB000DF91CF911F910F91FF90EF9008957C01DA
:101EC0002FEFE21AF20A69910E94340FC701EDCF99
:101ED000EF92FF920F931F93CF93DF93EC01CA0110
:101EE0008E01060F171FC017D10739F4DF91CF916C
:101EF0001F910F91FF90EF9008957C012FEFE21A50
:101F0000F20A0E94420F8993C701EDCF0E9422245A
:101F100060931F027093200280932102909322020B
:101F200047E550E070E060E08FE192E00C94EC2D2A
:101F3000CF93C82F47E550E070E060E08FE192E07A
:101F40000E94BA2D80912A028B3A01F1EFE1F2E072
:101F500087E5DF011D928A95E9F78FE493E00E94FF
:101F6000E72181E08093230280932402809325025D
:101F70008BEA80932A028DE0ECE4F1E0A0E3B2E08A
:101F800001900D928A95E1F70E94860FCC2329F0EB
:101F900080911F02CF910C941324CF91089547E5AF
:101FA00050E070E060E08FE192E00C94CA2D8093E5
:101FB0002C02089580912C02089580932D0208959B
:101FC00080912D0208958091250208958093250225
:101FD000089580912802089580932802089580939F
:101FE0002602089580912602089580932B02089579
:101FF00080912B02089580932902089580912902EF
:102000000895809323020895809123020895809378
:102010002E02089580912E020895EFE1F2E0878567
:102020008F5F878708952EE0829FC0011124805D15
:102030009D4F089580932A02089580912A02089561
:1020400080932702089580912702089580912402A9
:10205000089580932402089580932F02089580911B
:102060002F020895982F80ED890F8A3070F08FEB42
:10207000890F863018F489EC890F08958FE9890F4C
:10208000863010F489EAF8CF80E00895CF93DF938B
:1020900000D000D0CDB7DEB70E945D2369837A837C
:1020A0008B839C8380917E0290917F02A09180021D
:1020B000B091810229813A814B815C81281B390BC7
:1020C0004A0B5B0BDA01C9010B97A105B10528F09A
:1020D00080917D02811110927D020E94B0248111B5
:1020E00009C090E080E00F900F900F900F90DF916B
:1020F000CF9108950E945D2360937E0270937F02CA
:1021000080938002909381020E94A32490917D028B
:102110009923E1F0933029F720917B0230917C02E2
:10212000F901E755FD4F8083A9014F5F5F4F509341
:102130007C0240937B02403491E0590710F11092E9
:102140007C0210927B0210927D02CBCF882349F251
:102150008D3039F28A3029F28093A90221E030E0F3
:1021600030937C0220937B0293E090937D028E3328
:1021700009F0B7CF1092AA0210927D0289EA92E08C
:10218000B2CF4230510508F4ACCFF901E855FD4F0C
:1021900090819D3009F0A5CF8A3009F0A2CF10823E
:1021A000EBCF0F931F93FB01BC016E1B7F0B021B38
:1021B000110B609FC001619F900D709F900D1124C5
:1021C000BA016E1B7F0B0E94DF25822F860F1F91A5
:1021D0000F910895CF93DF930E944610EC0180E0A9
:1021E000209769F0CE010E94D8216BE874E0CE01FF
:1021F0000E94232A892B31F081E080939902DF919C
:10220000CF91089564E874E0CE010E94232A892BBF
:10221000E9F06BE270E0CE0106960E94682AD82FA2
:10222000C92F61E00E94CF1C882361F081E0809378
:1022300098028DE0ED2FFC2FABE9B2E001900D92FA
:102240008A95E1F781E080939702D9CF6DE774E03A
:10225000CE010E94232A892B19F0CE010E9405127B
:1022600081E0CDCFCF92DF92EF92FF921F93CF9379
:10227000DF9300D000D000D0CDB7DEB77C016E83F5
:10228000172F0E943D23DC01CB018E0D9F1DA11D48
:10229000B11D6C017D010E94EA108D83882391F0AD
:1022A0006E81712F89EA92E00E94732A892B21F5B1
:1022B00061E575E089EA92E00E94232A892B59F3AF
:1022C0001D820BC00E943D23C616D706E806F906FC
:1022D00010F787E595E00E94E7218D8126960FB6DD
:1022E000F894DEBF0FBECDBFDF91CF911F91FF905D
:1022F000EF90DF90CF90089591E09D83EECF82E341
:1023000090E00E94A5230E94DE2485EC94E00E94C8
:1023100012256AE571E080ED97E00E94321181118B
:1023200002C080E008956AE370E089EA92E00E94CA
:10233000682AFC01892BA9F38281082E000C990BD5
:10234000C0970A9770F74AE050E070E060E0CF0174
:1023500002960E94A728462F572FBC0140325105F4
:1023600061057105F0F64250510924E6249FC00131
:10237000259F900D11246DE170E00E94DF25862FCE
:102380000895CF93DF93D82FC92F0E94DE2485E4D0
:1023900095E00E94122584E690E00E94A5230E9409
:1023A000DE2481E395E00E9412258D2F9C2F0E9450
:1023B000122584E295E00E94122580E30E94D22437
:1023C00081E295E00E94122560E671E080ED97E0E1
:1023D000DF91CF910C943211CF93C5E00E94DE249F
:1023E0008BEE94E00E94122560E671E080ED97E0AC
:1023F0000E943211811102C0C15011F4CF91089591
:1024000088EC90E00E94A523E9CFFC018781282F6A
:10241000082E000C330B205331092A30310508F007
:1024200074C0833331F13CF4813361F08233B9F00D
:10243000803391F10895843309F442C0853309F45F
:1024400055C0089584EF91E00E94A52381E00E9489
:10245000EC0F85E691E00E94C1110C94CF0F84EF40
:1024600091E00E94A52380E00E94EC0F83E691E0BA
:10247000F2CF84EF91E00E94A52380918B0290918E
:102480008C021816190654F081E791E00E94C111E0
:1024900084EC99E00E94A5230C94EC1189E791E06B
:1024A0000E94C11180ED97E00E94A5230E94EC11CB
:1024B00088EC90E00E94A5238BE992E00C94B40A8A
:1024C00029980E941F2284EF91E00E94A52380E0BA
:1024D0000E94EC0F83E691E00E94C1118CED95E023
:1024E0000E94A52381E080939602D6CF29980E946E
:1024F0001F2284EF91E00E94A52380E891E00E94D2
:10250000C11188EE93E00C94A5230895CF92DF9239
:10251000EF92FF92CF93DF9300D000D00F92CDB710
:10252000DEB77C010E943D23DC01CB018E0D9F1D97
:10253000A11DB11D6C017D010E94EA108D838823CD
:1025400019F091E09D830BC00E943D23C616D7066B
:10255000E806F90688F781EF94E00E94E7218D8173
:102560000F900F900F900F900F90DF91CF91FF90F1
:10257000EF90DF90CF900895CF93C5E00E94DE24C6
:1025800087E195E00E94122580ED97E00E94861277
:10259000882309F43FC060E175E089EA92E00E9477
:1025A000232A892B19F16CE270E089EA92E00E94FB
:1025B000682A009779F16CE270E001960E94682A1F
:1025C000FC01892B39F1E1818E2F0E2E000C990B25
:1025D000C0970A97F8F4E053C0E0E83020F4F0E048
:1025E000E55FFE4FC0818C2FCF9108956AE075E0C2
:1025F00089EA92E00E94232A892B61F463E075E066
:1026000089EA92E00E94232A009721F00E94051295
:10261000C2E0E9CFC15039F384E690E00E94A523DF
:10262000ADCFCF92DF92EF92FF92CF93DF9300D0A6
:1026300000D0CDB7DEB77C010E943D23DC01CB0189
:102640008E0D9F1DA11DB11D6C017D010E94EA1020
:10265000882369F08091A9028E33E1F060EB74E089
:1026600089EA92E00E94232A892B81F307C00E9405
:102670003D23C616D706E806F90640F780E00F901E
:102680000F900F900F90DF91CF91FF90EF90DF9020
:10269000CF90089581E0F3CF1F93CF93DF93D82F8E
:1026A000192F7F936F9381EA94E09F938F9389EA28
:1026B00092E09F938F930E94042B0F900F900F90A6
:1026C0000F900F900F90CAE00E94DE2489EA92E0FA
:1026D0000E94C62488EB9BE00E9411138823D9F046
:1026E0000E94DE248D2F912F0E94C62484E190E069
:1026F0000E94A5238AE10E94D22460E671E080ED69
:1027000097E00E943211813031F480930201DF9111
:10271000CF911F910895C150D1F38CE291E00E94B6
:10272000A523D2CFCF92DF92EF92FF92CF93DF9388
:1027300000D000D0CDB7DEB70E943D236B017C01F5
:1027400080EDC80E87E0D81EE11CF11C88EC90E0FB
:102750000E94A5230E94DE2484ED94E00E941225AD
:102760000E94EA10882351F16DEC74E089EA92E04E
:102770000E94232A0097A1F36CE270E00E94682A6D
:10278000009771F34AE050E070E060E001960E942B
:10279000A728DC01CB018B7F0197A105B105B9F416
:1027A00081E080939A020F900F900F900F90DF912D
:1027B000CF91FF90EF90DF90CF9008950E943D233E
:1027C000C616D706E806F90658F680E0ECCF109258
:1027D0009A02FBCFFF920F931F93CF93DF93182F93
:1027E000D92FF62E072F80918B0290918C0218160C
:1027F000190654F40E949213811108C06F2D702F96
:10280000812F9D2F0E944C13C0E03CC088EC90E0CB
:102810000E94A5230F93FF9282E994E09F938F93E8
:1028200089EA92E09F938F930E94042B0E94DE24FA
:1028300089EA92E00E94C62488EE93E00E94111378
:102840000F900F900F900F900F900F908823B1F280
:10285000812F9D2F0E94122584E690E00E94A523DF
:102860008AE10E94D2246AE871E080E69AEE0E9432
:102870003211C82F811106C06F2D702F812F9D2F0F
:102880000E944C138C2FDF91CF911F910F91FF90DD
:102890000895AF92BF92CF92DF92EF92FF920F9383
:1028A0001F93CF93DF9300D000D00F92CDB7DEB748
:1028B00089839D83062FF72E0E94EC1180918B0255
:1028C00090918C02181619060CF0C0C080919A02E3
:1028D000882309F4BBC010E089ECC82E85E0D82E0F
:1028E00099EAA92E92E0B92E88EE93E00E94A523E2
:1028F0001F5F8D818F9399819F93DF92CF92BF92BB
:10290000AF920E94042B0E94DE2489EA92E00E948A
:10291000C62460E671E080ED97E00E9432110F90CE
:102920000F900F900F900F900F90882309F49EC086
:1029300088EC90E00E94A52386EB95E00E94E721B9
:102940000E94BC12853009F452C088EC90E00E94CD
:10295000A5230E94BC12863009F452C088EC90E096
:102960000E94A5230E94BC12823009F05EC088EE4E
:1029700093E00E94A523802F9F2D0E94C11188EB18
:102980009BE00E94A523802F9F2D0E94C11188EB00
:102990009BE00E94A52381E991E00E94C1110E9461
:1029A0005D2369837A838B839C836B017C01A8E21E
:1029B000CA0ED11CE11CF11C0E94BC12823029F10C
:1029C0008BEA95E00E94E7210E94EC1181E00F90D4
:1029D0000F900F900F900F90DF91CF911F910F915B
:1029E000FF90EF90DF90CF90BF90AF90089584EF6D
:1029F00091E00E94A523A4CF88EE93E00E94A52336
:102A00000E94BC128630C1F3A9CF0E945D23698366
:102A10007A838B839C836C157D058E059F0580F6DC
:102A200080ED97E00E94A523C7CF80EA95E00E9441
:102A3000E721133009F058CF0E94C007823041F4DB
:102A400069817D818DE895E00E94EA1380E0BFCF27
:102A5000813029F469817D8187E795E0F5CF8B305E
:102A6000A9F769817D8184E695E0EECF133009F006
:102A70003BCFECCF1F93CF93DF93D82F192FC0E01C
:102A80008C2F0E941310FC0180818B3299F4C53089
:102A900089F0CC2321F088EE93E00E94A5238C2FAF
:102AA0000E9413106D2F712F0E944914809196027D
:102AB000813031F410929602DF91CF911F910895E9
:102AC000CF5FDECF1F93CF93DF93D82F192F809145
:102AD0008B0290918C02C0E0181619069CF0DF91D1
:102AE000CF911F910895CC2321F088EE93E00E94AE
:102AF000A5238C2F0E941310BC018D2F912F0E94B3
:102B0000EA13CF5F8C2F0E941310FC0180818B325F
:102B100031F7C53041F7E3CFFF920F931F93CF9367
:102B2000DF93182FD92FF62E072F80918B029091CB
:102B30008C021816190654F40E949213811108C0D1
:102B40006F2D702F812F9D2F0E944C13C0E03CC031
:102B500088EC90E00E94A5230F93FF9286EB94E00F
:102B60009F938F9389EA92E09F938F930E94042B07
:102B70000E94DE2489EA92E00E94C62488EE93E057
:102B80000E9411130F900F900F900F900F900F90C5
:102B90008823B1F2812F9D2F0E94C62484E690E005
:102BA0000E94A5238AE10E94D2246AE871E080E6AF
:102BB0009AEE0E943211C82F811106C06F2D702F1E
:102BC000812F9D2F0E944C138C2FDF91CF911F914D
:102BD0000F91FF900895FC0180818B3299F49F0141
:102BE0002F5F3F4F3D96D9018C912F5F3F4F082EAD
:102BF000000C990BC0970A9728F4E217F30799F78E
:102C000081E0089580E00895BF92CF92DF92EF9225
:102C1000FF920F931F93CF93DF9380910201811155
:102C20000BC080E0DF91CF911F910F91FF90EF904B
:102C3000DF90CF90BF90089580918B0290918C028D
:102C40001816190674F784E690E00E94A5230E94E6
:102C5000DE2486E694E00E94122567E971E088E8A8
:102C600093E10E9432118130D9F46AE370E089EA7D
:102C700092E00E94682A9C01009791F0AC014F5F9E
:102C80005F4F2A5F3F4FEA014F5F5F4F8881082EF9
:102C9000000C990BC0970A9730F02417350799F765
:102CA00010920201BECF4AE050E070E060E0CE0139
:102CB0000E94A7286B017C01C114D104E104F10436
:102CC00079F36CE270E0CE010E94682A0097D9F097
:102CD0006CE270E00E94682A0097A9F06BE270E055
:102CE0000E94682AEC01009771F00E94EB1588237E
:102CF00051F08DE0FE01ABE9B2E001900D928A95B2
:102D0000E1F71092A80288EB9BE00E94A523DC2D3E
:102D1000BD2C8BE992E09F938F93DF92CF9284E555
:102D200094E09F938F9389EA92E09F938F930E9400
:102D3000042B0E94DE2489EA92E00E94C6246EE9F8
:102D400071E080E69AEE0E9432112DB73EB7285FFF
:102D50003F4F0FB6F8943EBF0FBE2DBF813009F034
:102D600060CFC3E007E414E089EAE82E82E0F82EA1
:102D700084E690E00E94A523BF92DF931F930F93F8
:102D8000FF92EF920E94042B8BE394E00E94E721D4
:102D90000E94DE2489EA92E00E94C62460E671E087
:102DA00080E797E10E9432110F900F900F900F90E3
:102DB0000F900F90813009F435CFC150C9F631CF53
:102DC00084E690E00E94A5230E94DE2482E094E045
:102DD0000E94122560E671E088EA91E60C943211B7
:102DE0008F929F92AF92BF92CF92DF92EF92FF921B
:102DF0000F931F93CF93DF9300D000D00F92CDB7E6
:102E0000DEB710919902112309F462C084E690E0C4
:102E10000E94A52384E294E00E94122567E971E0F4
:102E200088E893E10E943211813009F06AC06AE3B8
:102E300070E089EA92E00E94682A9C01009771F391
:102E4000AC014F5F5F4F2A5F3F4F5A014F5F5F4FAB
:102E5000D5018C91082E000C990BC0970A9708F4A5
:102E600056C02417350789F7D9CF89EA92E00E9426
:102E7000FF1C03E087E1A82E84E0B82E99EA892E92
:102E800092E0992E84E690E00E94A523DF92CF92F3
:102E9000BF92AF929F928F920E94042B0E94DE24D9
:102EA00089EA92E00E94C62460E671E080E197E240
:102EB0000E9432110F900F900F900F900F900F9073
:102EC000813011F00150F1F684E690E00E94A523D4
:102ED000812F0F900F900F900F900F90DF91CF9157
:102EE0001F910F91FF90EF90DF90CF90BF90AF9028
:102EF0009F908F9008950E94E0161092990211E021
:102F0000E7CF0E94E0161092990210E0E1CF4AE06C
:102F100050E070E060E0C5010E94A7286B017C01D1
:102F2000C114D104F1E0EF06F10408F077CF6CE2B0
:102F300070E0C5010E94682A009709F46FCF6CE227
:102F400070E00E94682A009709F468CF6BE270E095
:102F50000E94682A5C01009779F00E94EB15882393
:102F600009F45CCF8DE0F501ABE9B2E001900D9280
:102F70008A95E1F71092A80288E893E10E948612F0
:102F8000182F813009F0B7CF0E943D234B015C011F
:102F9000B8EE8B0EB3E09B1EA11CB11C0E943D231A
:102FA0006A837B838C839D83681579058A059B05DD
:102FB00008F45BCF0E94B024882381F30E94A324ED
:102FC0008983898189830E943D234B015C01E8EE5E
:102FD0008E0EE3E09E1EA11CB11CE0CFCF93DF93C9
:102FE00000D000D0CDB7DEB7809197028823B1F131
:102FF0001092970280919802882309F454C00E948D
:10300000DE248CEF93E00E94122580ED97E00E9471
:10301000A5230E94E90F813041F585E691E00E94E9
:10302000C11180ED97E00E94A52385EA91E00E94FE
:10303000C111109298020E945D23DC01CB01889699
:10304000A11DB11D8093770290937802A09379021D
:10305000B0937A020E94BC12823051F00F900F9010
:103060000F900F90DF91CF91089583E691E0D7CF35
:1030700088EB9BE00E94A5230E945D2369837A83ED
:103080008B839C838091770290917802A091790242
:10309000B0917A0229813A814B815C818217930732
:1030A000A407B507B8F60F900F900F900F90DF911F
:1030B000CF910C94EC118F929F92AF92BF92FF929E
:1030C0000F931F93CF93DF9300D000D000D0CDB7E4
:1030D000DEB78C016D837E830E945D234B015C0112
:1030E00088E5880E82E0981EA11CB11C87EF93E052
:1030F000ED81FE81099560E671E088EE93E00E9423
:10310000321181110FC00E945D2386169706A80612
:10311000B90618F481E00E94081988EE93E0F801DE
:103120000995E4CF84EF91E0F801099580EF93E0F1
:10313000ED81FE81099580ED97E0F801099584EE17
:1031400093E0ED81FE81099560E671E088EB9BE0FC
:103150000E943211882351F284EF91E0F801099521
:1031600080ED93E0ED81FE81099560E671E088EBEA
:103170009BE00E943211882309F4B8CF84EF91E0DC
:10318000F801099584EC93E0ED81FE81099560E6F4
:1031900071E088EB9BE00E943211882309F4A6CFEE
:1031A00084EF91E0F80109958BEA93E0ED81FE81CF
:1031B000099560E671E088E893E10E943211882366
:1031C00009F494CF84EF91E0F801099588E993E040
:1031D000ED81FE81099560E671E088EB9BE00E943D
:1031E0003211F82E882309F481CF0E9492138F2D7B
:1031F00026960FB6F894DEBF0FBECDBFDF91CF91FC
:103200001F910F91FF90BF90AF909F908F90089566
:10321000CF93C82F0E940A108E3F98F40E940D1081
:103220000E94CF0F5F9883E00E94D3235F9A62E1F0
:1032300075E285EA93E20E945B18C13031F4F8949C
:10324000FFCF80E00E940710EBCFCF910895CF937E
:10325000DF9300D000D0CDB7DEB70E945D23698335
:103260007A838B839C838091870290918802A091BE
:103270008902B0918A0288589F4FAF4FBF4F298172
:103280003A814B815C8182179307A407B50700F54B
:103290000E94921381111EC0809186028F5F8093DD
:1032A00086028FED94E00E94E721809186028530AE
:1032B0001CF080E00E9408190E945D236093870241
:1032C000709388028093890290938A020E94041668
:1032D00080E00DC0109286020E945D2360938702F9
:1032E000709388028093890290938A0281E00F9004
:1032F0000F900F900F90DF91CF9108954F925F92B2
:103300006F927F928F929F92AF92BF92CF92DF92F5
:10331000EF92FF920F931F93CF93DF93CDB7DEB75A
:10332000C156D1090FB6F894DEBF0FBECDBF13E072
:103330000E94DE248CE893E00E94122586E893E048
:103340000E94122582E893E00E94122560E671E057
:1033500080E197E20E943211813061F50E945D2385
:103360006B017C018AE0C80ED11CE11CF11C8AEAC9
:1033700091E00E94D8210E945D23A2966CAF7DAFA0
:103380008EAF9FAFA2976C157D058E059F05A0F4AB
:103390000E9446108C01009771F367EB71E00E9468
:1033A000732A892B11F581E008C084EF91E00E9417
:1033B000A523BECF1150C9F780E0CF59DF4F0FB61C
:1033C000F894DEBF0FBECDBFDF91CF911F910F915B
:1033D000FF90EF90DF90CF90BF90AF909F908F9035
:1033E0007F906F905F904F90089562E270E0C80107
:1033F00006960E94682A7C01892BF1F29FEFE91A58
:10340000F90A8CE5F701DE01119601900D928A957B
:10341000E1F7DE0111966D014E01B1E68B0E911CB4
:10342000B12CA12C01ED20ED722E31E9632E41E883
:10343000542EF60180810E943210482ED60111963A
:103440008C910E943210429490EF4922480EF6016E
:1034500082810E943210182FD60113968C910E94FF
:103460003210912F9295907F980FD701AA0DBB1D16
:10347000F501319641103CC09C935F0194E0C90E68
:10348000D11C8C149D04A9F6F701EA0DFB1D1082D6
:1034900060E270E0C7010E94682A0097F9F060E2DC
:1034A00070E001960E94682A8C01892BB9F00F5FA9
:1034B0001F4FF80101900020E9F73197E01BF10B55
:1034C00080E0482F50E04E175F0730F4D801A40F7A
:1034D000B51F9C91903221F5883020F183E0EEEB0E
:1034E000F1E0ADE8B2E001900D928A95E1F764CF8A
:1034F000EE0DFF1D82E0A80EB11C913019F47C92F4
:103500005082BCCF913519F40C936082B7CF9034C0
:1035100020F47C9290589083B1CF0C93905CFBCFB9
:103520008F5FCFCFB8018DE892E00E944F2A62EC06
:1035300071E0C8010E943D2A8C01892B09F43CCF1F
:103540008DE892E00E94D821C8010E94EF29909353
:103550008C0280938B02181619060CF02DCF0A9757
:103560000CF021CF81E793E00E94E72180E693E011
:103570000E94621518CFCF93DF9300D000D0CDB753
:10358000DEB70E947D2369837A838B839C8380913D
:10359000820290918302A0918402B09185028056AC
:1035A0009A4FAF4FBF4F29813A814B815C8182177F
:1035B0009307A407B507B8F40E947E1981111AC0B9
:1035C0008091820290918302A0918402B091850241
:1035D000CC96A11DB11D8093820290938302A0938B
:1035E0008402B09385020F900F900F900F90DF919F
:1035F000CF9108950E947D2360938202709383028D
:103600008093840290938502EECF80919A0281305C
:1036100011F42C9A0895809176028F5F8093760240
:10362000833330F085B190E1892785B91092760215
:1036300008958BE992E008958DE892E00895579AF5
:103640005F9A219A2998229A2A983B9843985598EC
:103650005D9A23982B9A3D98459A52985A98259AA4
:103660002D98249A2C983A98429A54985C9A3C98AF
:10367000449A08950E946A24019679F08091F70394
:103680008F5F8093F7038F3130F085B190E2892707
:1036900085B91092F7032C9808950E94E90F8130A4
:1036A00071F48091F6038F5F8093F603853698F36B
:1036B00085B190E2892785B91092F603ECCF0E947C
:1036C000E90F811103C02D980C94051B089580917A
:1036D000F503339B0FC081110DC08091F4038F5F00
:1036E0008093F403833040F081E08093FB0382E019
:1036F0008093F5031092F4038091F503882321F061
:1037000081508093F50308951092FB0308958091F2
:10371000FB03089586B18295817091E08927089511
:10372000329B1CC01092F3031092F2038091F103BC
:10373000813009F461C04C9956C08091F0038A3001
:1037400008F456C08091EF03811156C081E0809348
:10375000EF038093F1038CE00C94BD070E94E90F06
:10376000811107C08091F3038F3010F58F5F809334
:10377000F3030E94E90F813069F58091F3038530EE
:1037800070F18091F2038111D1CF0E941F2280E05D
:103790000E94EC0F8FEF9FEF0E94622481E08093E4
:1037A000F2030E94CF0F84E690E00E942722BECF52
:1037B0008091F2038111DDCF90E080E00E946224CD
:1037C00081E08093F2030E94CF0F84E690E00E9494
:1037D0002722CFCF0E946A24019679F6A7CF8F5F68
:1037E0008093F303A3CF1092F0031092EF03089598
:1037F0008F5F8093F003089508958091EE031B9BE3
:103800000FC081110DC08091ED038F5F8093ED0398
:10381000843140F081E08093FA038AE08093EE03E4
:103820001092ED038091EE03882321F08150809364
:10383000EE0308951092FA0308958091FA03089513
:103840008091EC034D9B0FC081110DC08091EB0363
:103850008F5F8093EB03853040F081E08093F90324
:1038600083E08093EC031092EB038091EC038823B8
:1038700021F081508093EC0308951092F90308958C
:103880008091F90308958091EA03359B0FC081115F
:103890000DC08091E9038F5F8093E9038A3040F087
:1038A00081E08093F80385E08093EA031092E903B6
:1038B0008091EA03882321F081508093EA030895E0
:1038C0001092F80308958091F8030895AF92BF9283
:1038D000DF92EF92FF920F931F93CF93DF938C01B0
:1038E0007B01C42FD0E08D2F0E941310FC011082A9
:1038F000DF5FD530C1F75801D12C0C2E000CDD0B49
:10390000C5010E94EB15811122C0970180E08D1145
:103910002DC0C81BD1099EE09C9FA0019D9F500D0A
:10392000112470E060E09701899F200D311D112462
:10393000C9010E94612A81E0DF91CF911F910F910F
:10394000FF90EF90DF90BF90AF900C942010D39435
:10395000DC161D0609F0CCF4F50185858B33A9F240
:103960008C3299F4FEE0AF0EB11CCACF9DE0F80195
:10397000D90101900D929A95E1F7F9011586025F40
:103980001F4F8F5F225F3F4FC2CFDF91CF911F91BB
:103990000F91FF90EF90DF90BF90AF9008950F933D
:1039A0001F93CF93DF93182F092FC62F613009F58E
:1039B000D0E08D2F0E941310FC0180818B32B1F476
:1039C0008D2F0E941310BC014DE050E0812F902FED
:1039D0000E94422A892B51F48CE798E00E94E7214B
:1039E0008C2FDF91CF911F910F910895DF5FD5301C
:1039F00001F782E798E00E94E721C0E0F1CF2F9223
:103A00003F924F925F926F927F928F929F92AF926E
:103A1000BF92CF92DF92EF92FF920F931F93CF93BB
:103A2000DF93CDB7DEB7C25AD1090FB6F894DEBF27
:103A30000FBECDBF8C0144E050E06DE678E00E94FF
:103A4000162A892B09F0CFC10E94191B61E00E9440
:103A5000CF1C0C5F1F4FF12C811156C00E94191B07
:103A6000BC018FE598E0CE55DF4F0FB6F894DEBF6E
:103A70000FBECDBFDF91CF911F910F91FF90EF90BF
:103A8000DF90CF90BF90AF909F908F907F906F907E
:103A90005F904F903F902F900C94EA131A83098304
:103AA0004CE050E06FE077E0C8010E94162A892BB5
:103AB000D1F5C8010C969A838983F8012485022EDA
:103AC000000C330B205331092A30310518F54AE038
:103AD00050E0BE016F5F7F4F0E94A728382F292F2B
:103AE000CB01A32FB22F8B3F9105A105B10590F417
:103AF000E981FA8120812B3369F40E942910098120
:103B00001A810F5F1F4FF394F80180818111C6CF96
:103B1000F11061C180E00E94980F0E94191BBC0146
:103B200086E598E0A0CF49E050E065E077E0C80185
:103B30000E94162A892B39F5C80109969A83898330
:103B4000F8012185022E000C330B205331092A3055
:103B5000310500F74AE050E0BE016F5F7F4F0E94E1
:103B6000A728382F292FCB01A32FB22F8B3F9105E8
:103B7000A105B10578F6E981FA8120812B3351F650
:103B80000E940110BCCF46E050E06EEF76E0C80125
:103B90000E94162A892BB9F4F8018681803389F0B6
:103BA000813309F0B7CF81E09801295F3F4F3A8315
:103BB0002983F80197819B3309F0ACCF0E94EC0F69
:103BC0009ECF80E0F1CF47E050E066EF76E0C8019D
:103BD0000E94162A892BB9F4F8018781803389F075
:103BE000813309F097CF81E09801285F3F4F3A83F6
:103BF0002983F80190859B3309F08CCF0E94F50F43
:103C00007ECF80E0F1CF4AE050E06BEE76E0C80175
:103C10000E94162A892BB9F4F8018285803389F035
:103C2000813309F077CF81E09801255F3F4F3A83D8
:103C30002983F80193859B3309F06CCF0E94FB0F19
:103C40005ECF80E0F1CF46E050E064EE76E0C80160
:103C50000E94162A892BB9F4F8018681803389F0F5
:103C6000813309F057CF81E09801295F3F4F3A83B4
:103C70002983F80197819B3309F04CCF0E94D70F1D
:103C80003ECF80E0F1CF44E050E06FED76E0C80138
:103C90000E94162A892BB9F4F8018481803389F0B7
:103CA000813309F037CF81E098012B5F3F4F3A8392
:103CB0002983F80195819B3309F02CCF0E94DD0FF9
:103CC0001ECF80E0F1CF4DE050E061ED76E0C8011D
:103CD0000E94162A892BB9F4F8018585803389F072
:103CE000813309F017CF81E09801225F3F4F3A837B
:103CF0002983F80196859B3309F00CCF0E94E60FCB
:103D0000FECE80E0F1CF4DE050E063EC76E0C801FC
:103D10000E94162A892BB9F4F8018585803389F031
:103D2000813309F0F7CE81E09801225F3F4F3A835B
:103D30002983F80196859B3309F0ECCE0E94EF0FA2
:103D4000DECE80E0F1CF49E050E069EB76E0C801DB
:103D50000E94162A892BB9F4F8018185803389F0F5
:103D6000813309F0D7CE81E09801265F3F4F3A8337
:103D70002983F80192859B3309F0CCCE0E942C1048
:103D8000BECE80E0F1CF47E050E061EB76E0C801C5
:103D90000E94162A892B09F0BDCEF8018781803355
:103DA000A9F0813309F0B6CE81E09801285F3F4F3A
:103DB0003A832983F80190859B3309F0ABCE81309B
:103DC00039F480E69AEE0E94142299CE80E0EDCF7D
:103DD0000E941F2294CE0E94CF0F0E94191BBC018B
:103DE0008CE598E040CE44E050E061E578E0C80121
:103DF0000E94162A892B09F02DC10E94191B61E02F
:103E00000E94CF1C811106C00E94191BBC0183E4D3
:103E100098E029CE0C5F1F4F1982312CCE010196FC
:103E2000CF55DF4F99838883C15AD04086E5482E0D
:103E300086E0582E94E7692E96E0792E21EAC22E6C
:103E400026E0D22E3DE9A32E36E0B32E4BE9842E98
:103E500046E0942EF8018081811127C0332059F06B
:103E60000E94191BBC01CE0101960E948C1588E3AB
:103E700098E00E94E721CE55DF4F0FB6F894DEBFE1
:103E80000FBECDBFDF91CF911F910F91FF90EF90AB
:103E9000DF90CF90BF90AF909F908F907F906F906A
:103EA0005F904F903F902F900895CF55DF4FE8815E
:103EB000F981C15AD04001900020E9F7CF01019764
:103EC0007C014CE050E069EA76E0C8010E94162AC5
:103ED000892B09F03FC0045F1F4FDF92CF92FF9202
:103EE000EF920E94042BE80EF91E0F900F900F9096
:103EF0000F90212C822D0E941310FC0180818B32A7
:103F0000D9F4822D0E9413109F938F93BF92AF928A
:103F1000FF92EF920E94042BE80EF91E23940F905B
:103F20000F900F900F900F900F90F5E02F12E2CFAF
:103F300021E0E21AF10802C02110FACF9F928F927D
:103F4000FF92EF920E94042B0F900F900F900F9012
:103F5000339480CF49E050E061E976E0C8010E94E7
:103F6000162A892B99F4075F1F4F0E9404101F9295
:103F70008F937F926F92FF92EF920E94042B0F908B
:103F80000F900F900F900F900F90E2CF4CE050E009
:103F900067E676E0C8010E94162A892B49F4045F7F
:103FA0001F4F0E9426101F928F935F924F92E3CF74
:103FB0004AE050E06BE476E0C8010E94162A892BA3
:103FC00059F4065F1F4F0E94FE0F1F928F938DE3DF
:103FD00096E09F938F93CFCF4DE050E06FE276E075
:103FE000C8010E94162A892B49F4035F1F4F0E94C3
:103FF000DA0F1F928F938EE196E0EBCF4BE050E00B
:1040000062E176E0C8010E94162A892B49F4055F17
:104010001F4F0E94E00F1F928F9383E096E0D9CF4D
:1040200049E050E069EF75E0C8010E94162A892B2B
:1040300049F4075F1F4F0E942F101F928F938CEE41
:1040400095E0C7CF0E94191BBC0182E398E00E9453
:10405000EA1311CF4DE050E064E278E0C8010E941D
:10406000162A892BA9F50E94191B61E00E94CF1C1A
:10407000811106C00E94191BBC0186E198E0F3CCB7
:1040800080E00E941A100E94CF0F0E94191BBC01F1
:1040900084ED97E00E94EA1381E0CE55DF4F0FB622
:1040A000F894DEBF0FBECDBFDF91CF911F910F916E
:1040B000FF90EF90DF90CF90BF90AF909F908F9048
:1040C0007F906F905F904F903F902F900C940819C5
:1040D00047E050E06CEC77E0C8010E94162A892B7B
:1040E00099F40E94191B61E00E94CF1C811106C047
:1040F0000E94191BBC018EEB97E0B5CC0E94191BE6
:10410000BC0186EA97E0C6CF45E050E060EA77E080
:10411000C8010E94162A892B99F40E94191B61E09C
:104120000E94CF1C811106C00E94191BBC0182E9AC
:1041300097E099CC0E94191BBC0187EC99E093CCC5
:1041400048E050E069E877E0C8010E94162A892B10
:1041500099F40E94191B61E00E94CF1C811106C0D6
:104160000E94191BBC018BE797E07DCC0E94191BB4
:10417000BC0186E299E077CC48E050E062E777E066
:10418000C8010E94162A892B99F40E94191B61E02C
:104190000E94CF1C811106C00E94191BBC0184E63D
:1041A00097E061CC0E94191BBC0185E898E05BCCCC
:1041B00047E050E06CE577E0C8010E94162A892BA1
:1041C00051F50E94191B61E00E94CF1C811106C0AD
:1041D0000E94191BBC018EE497E045CC0E94191B7C
:1041E000CE55DF4F0FB6F894DEBF0FBECDBFDF91C7
:1041F000CF911F910F91FF90EF90DF90CF90BF90E4
:10420000AF909F908F907F906F905F904F903F9076
:104210002F900C94B40A47E050E066E477E0C801C0
:104220000E94162A892B09F026CE0E9423108111A4
:1042300032C080E00E941310BC0145E0C80107961F
:104240000E94661C81E00E9420100E94CF0F0E94F5
:10425000191BBC0188E397E00E94EA138AE297E009
:10426000CE55DF4F0FB6F894DEBF0FBECDBFDF9146
:10427000CF911F910F91FF90EF90DF90CF90BF9063
:10428000AF909F908F907F906F905F904F903F90F6
:104290002F900C94E7210E94191B61E00E94CF1C13
:1042A000813039F20E94191BBC018CE197E0DBCB15
:1042B00080E00E941310BC0141E085ED91E00E9476
:1042C000661C81E00C9420101F921FB61F921124CF
:1042D0008F939F9380910004813019F59091FF0393
:1042E0008FEF890F9130D9F48091FC039091FD03F9
:1042F00080FF1DC05B9A8091FC039091FD03969511
:1043000087959093FD038093FC038091FE03815079
:104310008093FE03811102C01092000483E0809319
:10432000FF039F918F911F901FBE1F9018955B9860
:10433000E2CF109200045B9A539A9FB7F8948FE1F2
:104340008093B30082E08093B0008093B100E0E7F7
:10435000F0E08081826080831092B2009FBF089558
:104360009091000481E0913009F080E008959091EF
:1043700000049130E1F393E09093FF039AE090936F
:10438000FE03880F990B92609093FD038093FC03CA
:1043900081E0809300040895CF93DF93EC0189912D
:1043A000811103C0DF91CF9108950E94B721F7CF0B
:1043B000CF93DF93EC018991811106C084EE91E0E7
:1043C000DF91CF910C94CC210E94B721F4CFCF93F1
:1043D000DF93EC01FE0184912196811106C084EEE9
:1043E00091E0DF91CF910C94CC210E94B721F2CFC4
:1043F000F89410928000E1E8F0E0108210928500BD
:104400001092840087E490E0909389008093880064
:10441000808188608083808185608083EFE6F0E022
:104420008081826080830895F89421E020931504B0
:104430008093130490931404299A78940895109209
:104440001504109214041092130429980895F894F6
:1044500021E02093120480931004909311042A9A6F
:10446000789408951F920F920FB60F9211242F93F4
:104470003F934F935F936F937F938F939F93AF93EC
:10448000BF93EF93FF930E943A1B0E94901B0E94E0
:10449000671B0E94FD1B0E94201C0E94431C8091F0
:1044A0001204882369F080911004909111048A30DD
:1044B000910508F44FC00A9790931104809310045B
:1044C000809115048823D1F08091130490911404F5
:1044D0008A30910508F446C00A979093140480939B
:1044E0001304809101048F5F80930104883230F0BF
:1044F00085B192E0892785B91092010480911E044C
:1045000090911F04A0912004B09121040A96A11D4E
:10451000B11D80931E0490931F04A0932004B093B8
:104520002104809103048F5F8436F8F480930304A0
:10453000A895FF91EF91BF91AF919F918F917F913E
:104540006F915F914F913F912F910F900FBE0F9000
:104550001F901895109211041092100410921204DA
:104560002A98AECF0E941F22C7CF109203048091D9
:104570001A0490911B04A0911C04B0911D04019693
:10458000A11DB11D80931A0490931B04A0931C04D9
:10459000B0931D048091080490910904A0910A042D
:1045A000B0910B040196A11DB11D80930804909356
:1045B0000904A0930A04B0930B0480910301909125
:1045C00004018F3F980729F001969093040180938E
:1045D000030180910E0490910F04019690930F04B3
:1045E00080930E04809102048F5F809302040E94E6
:1045F000FF0B8091040490910504A0910604B091F2
:1046000007040196A11DB11D809304049093050435
:10461000A0930604B0930704809102048C33A8F0A1
:10462000109202048091160490911704A09118042E
:10463000B09119040196A11DB11D809316049093A9
:104640001704A0931804B093190480910E0490915C
:104650000F048935924008F46BCF80910C0490913F
:104660000D048F3F980729F0019690930D048093D5
:104670000C0481E00E9408195BCFCF93DF9300D038
:1046800000D0CDB7DEB78FB7F89420911E043091DB
:104690001F04409120045091210429833A834B83C5
:1046A0005C838FBF69817A818B819C810F900F9091
:1046B0000F900F90DF91CF910895CF93DF9300D0AB
:1046C00000D0CDB7DEB78FB7F89420911A0430919F
:1046D0001B0440911C0450911D0429833A834B8391
:1046E0005C838FBF69817A818B819C810F900F9051
:1046F0000F900F90DF91CF910895CF93DF9300D06B
:1047000000D0CDB7DEB78FB7F89420911604309162
:104710001704409118045091190429833A834B835C
:104720005C838FBF69817A818B819C810F900F9010
:104730000F900F90DF91CF9108958FB7F89410925A
:104740000F0410920E048FBF0895CF92DF92EF9264
:10475000FF92CF93DF9300D000D0CDB7DEB77C01BE
:104760000E943D23DC01CB018E0D9F1DA11DB11DBB
:104770006C017D010E943D236C157D058E059F0512
:1047800068F00F900F900F900F90DF91CF91FF90F6
:10479000EF90DF90CF9008950E94EA100E94B0241D
:1047A0008111FACFE7CFCF92DF92EF92FF92CF93B2
:1047B000DF9300D000D0CDB7DEB7F82E0E945D2386
:1047C000DC01CB018F0D911DA11DB11D6C017D017F
:1047D0000E945D236C157D058E059F0568F00F9086
:1047E0000F900F900F90DF91CF91FF90EF90DF909F
:1047F000CF9008950E94EA100E94B0248111FACF50
:10480000E7CF462F572FBC014115510561057105B2
:1048100009F4089582E08A95F1F700C041505109EA
:1048200061097109F1CF2FB7F89490E0B0E0A0E0F2
:104830008093040490930504A0930604B0930704A6
:104840002FBF0895CF93DF9300D000D0CDB7DEB750
:104850008FB7F89420910404309105044091060428
:104860005091070429833A834B835C838FBF69810E
:104870007A818B819C810F900F900F900F90DF9128
:10488000CF910895CF93DF9300D000D0CDB7DEB79E
:104890008FB7F894209108043091090440910A04DC
:1048A00050910B0429833A834B835C838FBF6981CA
:1048B0007A818B819C810F900F900F900F90DF91E8
:1048C000CF9108952FB7F89480930301909304013A
:1048D0002FBF08952FB7F8948091030190910401A0
:1048E0002FBF08951092C5008FE28093C40086E028
:1048F0008093C20088E98093C10010922204109234
:10490000230408958F938FB78F939F93EF93FF9313
:10491000F8949091C6008091C000887161F4E09194
:104920002304F0E0EC5DFB4F9083809123048F5FC4
:104930008F77809323047894FF91EF919F918F91CB
:104940008FBF8F911895E0912204F0E0EC5DFB4F52
:10495000809122048F5F8F77809322048081089555
:10496000209123049091220481E0291301C080E06A
:104970000895615008F408952091C00025FFFCCFF0
:10498000FC0181918093C600CF01F3CFFC0181919E
:10499000811101C008959091C00095FFFCCF8093D4
:1049A000C600F5CF9091C00095FFFCCF8093C60064
:1049B000089510922304109222040895CF92DF925A
:1049C000EF92FF92CF93DF9300D000D0CDB7DEB748
:1049D0000E945D2369837A838B839C836B017C01B6
:1049E00083E0C80ED11CE11CF11C8091C00087FD42
:1049F0000BC00F900F900F900F90DF91CF91FF9011
:104A0000EF90DF90CF9008950E945D2369837A83B1
:104A10008B839C83C616D706E806F90650F380916F
:104A2000C600E3CF0F931F93CF93DF938C010E94B7
:104A3000DE24E801FE0184912196811105C0DF91F9
:104A4000CF911F910F9108950E94D224F3CFCDB73B
:104A5000DEB768970FB6F894DEBF0FBECDBFA8953E
:104A600089E2809360000E941F1B0E94F8210E942F
:104A700099210E94722478940E94190C83EE95E08B
:104A80000E94E7210E94DD070E94F10B88E893E174
:104A90000E94A52362E175E285EA93E20E945B1819
:104AA000882331F00E947E198AED95E00E94E7216B
:104AB00081E00E94980F0E942F10813011F40E9413
:104AC000460D0E949D2388E893E10E94A5230E9441
:104AD0008F090E94E0160E943D0C84E690E00E943F
:104AE000272282ED95E00E94E7210E945D232B01A1
:104AF0003C0184ECE82E81E0F82E8E01035F1F4F0D
:104B00009BECC92E91E0D92E9E012F5F3F4F59019A
:104B10000E949D230E94EE170E94DF050E94271924
:104B20000E94BB1A0E948F090E94740B0E94F0160B
:104B30000E945D236D8B7E8B8F8B988FD301C2017A
:104B40000A96A11DB11D2D893E894F89588D821766
:104B50009307A407B50758F50E943D0C80E00E941A
:104B6000EB079F938F93FF92EF921F930F930E94F7
:104B7000E12AC8010E94D82184E690E00E94A52382
:104B800088E00E94EB079F938F93DF92CF92BF92B2
:104B9000AF920E94E12AC5010E94D8210E945D23A4
:104BA0002B013C010FB6F894DEBF0FBECDBF0E94B3
:104BB000B024882309F4ACCF0E94EA10F8CFAA1BD6
:104BC000BB1B51E107C0AA1FBB1FA617B70710F0F8
:104BD000A61BB70B881F991F5A95A9F7809590952A
:104BE000BC01CD01089597FB072E16F4009407D061
:104BF00077FD09D00E94DF2507FC05D03EF4909593
:104C000081959F4F0895709561957F4F0895A1E21A
:104C10001A2EAA1BBB1BFD010DC0AA1FBB1FEE1F36
:104C2000FF1FA217B307E407F50720F0A21BB30B81
:104C3000E40BF50B661F771F881F991F1A9469F7FD
:104C400060957095809590959B01AC01BD01CF0159
:104C50000895052E97FB1EF400940E94402657FDF0
:104C600007D00E94072607FC03D04EF40C94402680
:104C700050954095309521953F4F4F4F5F4F089588
:104C800090958095709561957F4F8F4F9F4F0895B8
:104C9000EE0FFF1F0590F491E02D09940E94552618
:104CA0006894B1110C94E42608950E94C92688F0F6
:104CB0009F5798F0B92F9927B751B0F0E1F0660FE0
:104CC000771F881F991F1AF0BA95C9F714C0B13021
:104CD00091F00E94E326B1E008950C94E326672F3B
:104CE000782F8827B85F39F0B93FCCF38695779550
:104CF0006795B395D9F73EF4909580957095619539
:104D00007F4F8F4F9F4F0895E89409C097FB3EF463
:104D100090958095709561957F4F8F4F9F4F992308
:104D2000A9F0F92F96E9BB279395F6958795779586
:104D30006795B795F111F8CFFAF4BB0F11F460FF46
:104D40001BC06F5F7F4F8F4F9F4F16C0882311F09E
:104D500096E911C0772321F09EE8872F762F05C0B2
:104D6000662371F096E8862F70E060E02AF09A954D
:104D7000660F771F881FDAF7880F9695879597F942
:104D8000089557FD9058440F551F59F05F3F71F03B
:104D90004795880F97FB991F61F09F3F79F08795A2
:104DA0000895121613061406551FF2CF4695F1DF2B
:104DB00008C0161617061806991FF1CF86957105BB
:104DC000610508940895E894BB2766277727CB01EF
:104DD00097F908950E94FD260C946E270E94602783
:104DE00038F00E94672720F0952311F00C94572784
:104DF0000C945D2711240C94E4260E94C12670F3C4
:104E0000959FC1F3950F50E0551F629FF001729F6F
:104E1000BB27F00DB11D639FAA27F00DB11DAA1F7E
:104E2000649F6627B00DA11D661F829F2227B00DCB
:104E3000A11D621F739FB00DA11D621F839FA00D56
:104E4000611D221F749F3327A00D611D231F849FA6
:104E5000600D211D822F762F6A2F11249F575040FD
:104E60009AF0F1F088234AF0EE0FFF1FBB1F661F78
:104E7000771F881F91505040A9F79E3F510580F041
:104E80000C9457270C94E4265F3FE4F3983ED4F348
:104E9000869577956795B795F795E7959F5FC1F7E5
:104EA000FE2B880F911D9695879597F9089597F990
:104EB0009F6780E870E060E008959FEF80EC0895C0
:104EC00000240A94161617061806090608950024E9
:104ED0000A9412161306140605060895092E039463
:104EE000000C11F4882352F0BB0F40F4BF2B11F4D7
:104EF00060FF04C06F5F7F4F8F4F9F4F08950F93E8
:104F00001F93CF93DF939C01029710F422E030E0CF
:104F1000E091A404F091A50490E080E0B0E0A0E06E
:104F2000309791F4009709F445C0821B930B8430AD
:104F30009105B8F58A819B816115710569F1FB01C5
:104F400093838283FE0111C04081518102811381CC
:104F500042175307F0F04217530799F4109761F086
:104F600012960C93129713961C933296CF01DF91F1
:104F7000CF911F910F9108950093A4041093A5045D
:104F8000F4CF009719F04817590718F4CA01BD016A
:104F9000EF01DF01F801C4CF9093A5048093A4042E
:104FA000D1CFFE01E80FF91F219331930297998326
:104FB0008883DCCF8091A6049091A704892B41F4CB
:104FC00080910701909108019093A7048093A60413
:104FD0008091050190910601009741F48DB79EB72D
:104FE0004091090150910A01841B950B4091A60440
:104FF0005091A7044817590708F0B8CF841B950BA8
:105000008217930708F4B2CFB9016E5F7F4F8617FE
:10501000970708F4ABCF640F751F7093A7046093D4
:10502000A604FA0121933193A1CFCF93DF939C0182
:105030000097E9F0FC01329713821282C091A40418
:10504000D091A504DE0190E080E02097A1F480815A
:105050009181280F391F8091A6049091A70482178F
:10506000930709F067C0F093A704E093A604DF91CB
:10507000CF910895DA01AE17BF0708F041C012962C
:105080004D915C911397CD014115510599F7DC01C4
:105090001396FC93EE9312974D915D91A40FB51F5B
:1050A000EA17FB0781F4208131812E5F3F4F240FE7
:1050B000351FDC0111963C932E9322813381139688
:1050C0003C932E931297B0E0A0E08A819B810097D9
:1050D000B1F5FE0181919191E80FF91F8091A6042D
:1050E0009091A7048E179F0711F6109759F510920B
:1050F000A5041092A404D093A704C093A604B7CF2C
:10510000B383A28340815181240F351FA217B307B7
:1051100071F44E5F5F4F2D913C911197240F351F15
:105120003183208312962D913C9133832283009703
:1051300009F0ADCFF093A504E093A40498CFDE016D
:10514000EC01C3CF13961C921E921297D4CFA6E007
:10515000B0E0EDEAF8E20C94212E8D839E836B0182
:105160007A016115710529F0ED81FE81DB01ED9376
:10517000FC93E114F10429F0C7010297839708F02A
:10518000A6C0AD80BE8095012F5F3F4F3E832D832B
:10519000D5011C91812F90E00E940D2A892B89F75F
:1051A0001D32B1F4ED81FE81108195012E5F3F4FDC
:1051B0003E832D8301E0E114F10409F401C1F0E123
:1051C000EF16F10409F004C1103369F0E02F1DC09F
:1051D0001B3239F4AD81BE811C91F5013296FE83FC
:1051E000ED8300E0E8CFAD81BE818C918F7D883565
:1051F00009F072C011961C9111971296BE83AD836F
:10520000E02FE26050E1E52EF12C88248A94982C5E
:10521000A82C8FE0B82E81C0E02F10E329E9822E60
:10522000982CA82C29E1B22E78C0E02F10E3EDCF06
:10523000E02F88248A94982CA82C3FE1B32E6DC0CF
:10524000E02F10E348E0E42EF12CF3CF8FEFB2C053
:10525000C114D10449F0882379F12D813E81215078
:105260003109F60131832083002379F029813A81C5
:105270004B815C8150954095309521953F4F4F4F24
:105280005F4F29833A834B835C838F3F69F482E2CB
:1052900090E09093AB048093AA048FEF9FEFDC0122
:1052A00089839A83AB83BC8369817A818B819C815A
:1052B0002696E0E10C943D2EE1FF06C0ED81FE81D3
:1052C0003297D601ED93FC93002371F3CFCF19826F
:1052D0001A821B821C82E8CFE114F10409F4B0CFDA
:1052E000BAE0EB16F10409F497CFE0E1EE16F10411
:1052F00009F49BCF10E3F8E0EF16F10409F498CF1E
:105300006FEF7FEFCB0197010F2C000C440B550B77
:105310000E94072649015A01E02F80E019821A8273
:105320001B821C8227010F2C000C66087708F0ED09
:10533000F10FFA3060F09FEB910FF9EC9A3130F0F9
:105340009FE9910F9A3108F083CFF9EAF10FFE152A
:105350001F040CF07DCF8F3F69F129813A814B8189
:105360005C8182169306A406B50608F46FCFA301EC
:10537000920169817A818B819C810E94042E6983CC
:105380007A838B839C838F2F90E0B0E0A0E029810B
:105390003A814B815C81280F391F4A1F5B1F29838B
:1053A0003A834B835C83281739074A075B0708F465
:1053B0004DCF81E0AD81BE811D91BE83AD83B7CF5E
:1053C000103309F410CFE02F9AE0E92EF12C26CF0C
:1053D0009AE0E916F10409F08ECFE02F1FCFFC010F
:1053E00088279927E89421912032E9F3293010F099
:1053F0002E30C8F32B3241F02D3239F4689404C0BA
:105400000E94BF2A820F911D219120532A30C0F3A0
:105410001EF4909581959F4F089591110C94FA2C4C
:10542000803219F089508550C8F70895FB01DC01DE
:1054300004C08D910590801921F441505040C8F767
:10544000881B990B0895FB0155915523A9F0BF01C5
:10545000DC014D9145174111E1F759F4CD0105905B
:10546000002049F04D9140154111C9F3FB01411154
:10547000EFCF81E090E00197089548EA54E00E9460
:105480008D2A0895FB01DC0104C08D9101908019E3
:1054900021F441505040C8F7881B990B08956817B4
:1054A000790768F4FB01DC01E40FF51FA40FB51FB9
:1054B00002C002900E9241505040D8F708950C94CB
:1054C000082DDC0101C06D9341505040E0F7089574
:1054D000FC018191861721F08823D9F79927089537
:1054E0003197CF010895FB0151915523A9F0BF01D8
:1054F000DC014D9145174111E1F759F4CD010190BF
:10550000002049F04D9140154111C9F3FB014111B3
:10551000EFCF81E090E001970895FA01A191B08169
:10552000009719F41097E1F0CD01DC01CD010D9049
:10553000002011F4C00113C0FB012191222319F0B6
:105540002015D9F7F3CFFB012191201519F41E92F4
:10555000119606C02223C1F70D900020A1F7D001BB
:10556000FA01A193B0830895BB274A3031F49923FF
:1055700022F4BDE2909581959F4F0C94C82A7AE061
:10558000979F902D879F802D910D11240895BB2703
:10559000FB015527AA27880F991FAA1FA41710F0EF
:1055A000A41B83955051B9F7A05DAA3308F0A95DFB
:1055B000A193009779F7B111B1931192CB010C949B
:1055C0001C2DAEE0B0E0E7EEFAE20C942D2E0D8932
:1055D0001E8986E08C831A8309838FEF9FE79E8361
:1055E0008D83AE01475E5F4F6F89788DCE01019646
:1055F0000E94272B2F813885020F131FF80110827C
:105600002E96E4E00C94492EAEE0B0E0EAE0FBE236
:105610000C942D2E0D891E898EE08C831A830983AC
:105620008FEF9FE79E838D83AE01475E5F4F6F894B
:10563000788DCE0101960E94272B2F813885020F8D
:10564000131FF80110822E96E4E00C94492EAFE06F
:10565000B0E0EDE2FBE20C941F2E7C013B018A01DD
:10566000DC0117961C921E92169713968C9181FF5F
:10567000BEC19AE0292EFE0131964F01D701139643
:105680009C91F30193FD859193FF81913F018823C4
:1056900009F444C1853239F493FD859193FF8191DA
:1056A0003F01853229F4B70190E00E942C2DE6CF0E
:1056B000B12C412C512CBFE1B51538F08B3209F1DA
:1056C00088F4803201F1833221F157FC3AC020ED99
:1056D000280F2A3040F556FE1FC0B29C200D112421
:1056E000B22E06C08D3291F0803379F7689450F86D
:1056F000F30193FD859193FF81913F018111DBCFF0
:1057000020C0689451F8689452F8F2CF689453F826
:10571000EFCF689454F8ECCF429C200D1124422E18
:10572000689455F8E5CF8E3229F456FCF7C068949A
:1057300056F8DECF8C3619F4689457F8D9CF8836EE
:10574000B9F2982F9F7D95549330C0F0833681F144
:105750008337A1F1833509F05BC0D801CD90DD908E
:105760008D016B2D70E056FC02C06FEF7FEFC6011C
:105770000E94FD2C5C01689457F80AC00C5F1F4F13
:10578000EFE3E983AA24A394B12C6401E89457F8C9
:1057900053FE29C0342CA114B10451F5332009F46F
:1057A0006DCFB70180E290E00E942C2D3A94F6CFA5
:1057B000D8018C9189830E5F1F4FE4CFF801C1900F
:1057C000D1908F016B2D70E056FC02C06FEF7FEF20
:1057D000C6010E94112D5C01D9CFB70180E290E093
:1057E0000E942C2D4A944A141B0409F0B0F7D2CF22
:1057F000F60157FC859157FE81916F01B70190E04A
:105800000E942C2D31103A94B1E0AB1AB108C3CFED
:10581000843619F0893609F071C0F80157FE67C067
:1058200061917191819191918F01E52DEF76DE2E3D
:1058300097FF09C090958095709561957F4F8F4F28
:105840009F4F6894D7F82AE030E0A4010E945C2DB5
:10585000C82EC818AC2C5D2CD6FE0CC0E89450F8AD
:10586000CB1440F4D4FE05C0D2FC03C05D2D5E7E97
:10587000552EAB2C54FE93C0FE01EC0DF11D808122
:10588000803309F085C0652D697E562E752D7870A0
:10589000372E53FC93C050FE8DC0BC2CA41410F4C2
:1058A000B40CBA1854FE90C0B70180E390E00E9497
:1058B0002C2D52FE07C088E751FC88E590E0B70127
:1058C0000E942C2DCB1408F48BC0CA94D12C8FEFDE
:1058D000C81AD80AC80CD91CD6018E916D01B7011F
:1058E00090E00E942C2D8C149D04B1F757CF61914C
:1058F0007191072E000C880B990B96CFD52CE8944C
:10590000D4F82AE0853729F1F52DF97FDF2E80378D
:10591000A1F058F48835A1F08F36D1F0F7018681D7
:1059200097812F96E2E10C943B2E8837B9F7D4FE8D
:1059300002C06894D2F820E10CC06894D4F8F7CF84
:1059400054FE03C02F2F2660D22E20E132E002C089
:1059500028E030E0F801D7FE15C0419151916191E6
:1059600071914C875D876E877F878F01A4016C855D
:105970007D858E859F850E945C2DC82EC818E89471
:10598000D7F868CF81919191AC0170E060E0E9CFE8
:1059900052FC02C0A3947ACFA394A39477CF852D11
:1059A000867809F473CFF6CFB70180E290E00E94C9
:1059B0002C2DA394A414C0F3312C74CF342C3A189A
:1059C000A41408F46FCFF8CF852D867809F47ACF28
:1059D0008BE251FE80E257FC8DE2B70190E070CF80
:1059E000B70180E390E00E942C2DBA946BCF8FEF2B
:1059F0009FEF97CF992788270895FC010590615064
:105A000070400110D8F7809590958E0F9F1F0895D4
:105A1000FB01DC0102C001900D9241505040D8F7CB
:105A20000895FC016150704001900110D8F78095F5
:105A300090958E0F9F1F0895DC01FC01672F7191D7
:105A40007723E1F7329704C07C916D937083629164
:105A5000AE17BF07C8F308950F931F93CF93DF933B
:105A6000182F092FEB018B8181FD09C01FEF0FEF6C
:105A7000812F902FDF91CF911F910F91089582FF79
:105A800014C02E813F818C819D81281739073CF4F9
:105A9000E881F981CF0101969983888310838E81F3
:105AA0009F8101969F838E83E3CFE885F985812FBF
:105AB0000995892BA1F3DACFFA01AA27283051F1F1
:105AC000203181F1E8946F936E7F6E5F7F4F8F4F2F
:105AD0009F4FAF4FB1E03ED0B4E03CD0670F781F8E
