:100000000C9434050C9451050C9451050C94510535
:100010000C9451050C9451050C9451050C947925C0
:100020000C9451050C9451050C9451050C945826D0
:100030000C9451050C9451050C9451050C945105E8
:100040000C9451050C9451050C94AC280C9451055A
:100050000C9451050C942B0C0C9451050C945105E7
:100060000C9451050C945105736D733D6C6F7720A2
:100070006261740042617474657279204C4F57213B
:10008000212100636865636B206261747465727915
:100090000045787465726E616C20706F77657220B0
:1000A0006973206F666600736D733D706F7765725C
:1000B0005F6F666600706F7765722D2D2D00457835
:1000C0007465726E616C20706F7765722069732041
:1000D0006F6E00736D733D706F776572206F6E0089
:1000E000706F7765722B2B2B004261747465727987
:1000F0003D256425252C20007369676E616C5F6760
:10010000736D3D256425253B006D63753D25753B6D
:100110000074656D703D2564433B006775617264D2
:100120003D25643B00743D25756425756825756D16
:100130002575733B006465706F7369743D25733B6F
:1001400000416C61726D2120496E7465726E616C44
:100150002054454D5045524154555245203E20367D
:1001600035432021212100416C61726D2120496EAF
:100170007465726E616C2054454D50455241545522
:10018000524521212100416C61726D212054454D61
:10019000504552415455524521212100416C617214
:1001A0006D212054454D5045524154555245212111
:1001B0002100426174746572793D256425252C20E7
:1001C000007273745F6D63753D25753B0047534D39
:1001D0003D256425253B0054656D705F6578743D51
:1001E0002564433B0054656D705F696E743D256402
:1001F000433B0047756172643D25643B0044657074
:100200006F7369743D25733B00464C41475F414C19
:1002100041524D5F534F530D0A00414C41524D2105
:1002200020496E766173696F6E21212100616C61D6
:10023000726D2E2E2E4558545F4D4F540D0A0041BD
:100240004C41524D2120496E766173696F6E2121B8
:100250002100616C61726D2E2E2E444F4F520D0A9B
:1002600000414C41524D2120496E766173696F6E99
:1002700021212100616C61726D2E2E2E53494E4753
:100280004C450D0A00727374206D6F74696F6E00B7
:10029000464C41475F414C41524D5F4558545F4D7C
:1002A0004F540D0A006578745F66697273745F6DF0
:1002B0006F74696F6E00464C41475F414C41524D2F
:1002C0005F444F4F520D0A00727374206D6F746952
:1002D0006F6E00464C41475F414C41524D5F534960
:1002E0004E474C450D0A0073696E676C655F666921
:1002F0007273745F6D6F74696F6E004775617264BD
:10030000206973206F6E20627920627574746F6E3D
:100310002E004F4E0054656D706572617475726584
:100320002073656E736F72206465746563746564B1
:100330002E004572726F722121212054656D706507
:100340007261747572652073656E736F72210065DA
:100350006570726F6D5F66697273745F7365740048
:100360004465706F736974203C20313020525542CF
:10037000004465706F736974203C203130207275C1
:100380006200220D0A002A313031230041542B43F0
:100390005553443D312C220041542B444445543D97
:1003A000312C35302C302C310D0A0041542B435068
:1003B0004D533D22534D222C22534D222C22534D7E
:1003C000220D0A0041542B434C49503D310D0A0087
:1003D00041542B434E4D493D322C312C302C312C85
:1003E000300D0A0041542B434D47463D310D0A0064
:1003F000415445300D0A0041540D0A004154410D4D
:100400000A0041542B434D4744413D2244454C2072
:10041000414C4C220D0A0041542B434D47443D258D
:10042000640D0A0041542B434D474C3D2252454335
:1004300020554E52454144220D0A0064656C5F739D
:100440006D735F696E640041542B434D47443D25F5
:10045000640D0A0041542B434D53533D25642C2217
:100460002573220D0A0041542B434D474C3D225326
:10047000544F20554E53454E54220D0A002B4454E0
:100480004D463A002B434C49503A002B434D5449BA
:100490003A0041542B434D47533D222573220D0A08
:1004A0000041542B434D47573D222573220D0A002E
:1004B0004552524F520041542B434D47533D222544
:1004C00073220D0A0041542B4353510D002B43520C
:1004D00045473A0041542B435245473F0D0A006EB1
:1004E0006F74207265672067736D004154480D0A70
:1004F0000077616974207374722074696D6520657A
:100500006E64002B44544D463A004552524F5200FF
:100510002B434C43433A0041542B434C43430D0A75
:10052000000D0A002E616D72222C302C3130302CDF
:100530000041542B435245433D342C22433A5C55F1
:100540007365725C0041542B435245433D350D0A9F
:10055000004552524F5200636D642074696D6520EE
:10056000656E6400414C41524D21204D6F74696F9E
:100570006E2120696E7400414C41524D2120496E1C
:10058000766173696F6E2120446F6F7200414C4138
:10059000524D21204D6F74696F6E21206578740073
:1005A0004E6F20616E73776572210043616C6C2021
:1005B000656E6465640043414C4C5F4F55545F4425
:1005C00049414C202E2E2E200041544425733B0DD2
:1005D0000A00496E6974204F6B0073657475705F13
:1005E0006F6B0053746172742E2E2E006578745FE9
:1005F00074656D703D25643B006578745F74656D4E
:10060000703B006163636570745F736D733D256457
:100610003B006163636570745F736D733B0061637E
:10062000636570745F63616C6C733D25643B00614E
:1006300063636570745F63616C6C733B00617574B8
:100640006F67756172643D25643B006175746F6707
:10065000756172643B0070617573655F616C617296
:100660006D3D2575733B0070617573655F616C61ED
:10067000726D3B00696E74657276616C5F61667461
:1006800065725F627574746F6E5F6D3D25756D3B4D
:1006900000696E74657276616C3B003B0025732CBB
:1006A0000070686F6E65733D0070686F6E65733BB8
:1006B0000062757A7A65723D006578745F74656D65
:1006C000703D0067756172645F7265706F72743D32
:1006D00000706F7765725F7265706F72743D007342
:1006E0006D733D0063616C6C733D006175746F6781
:1006F000756172643D0066697273746D3D00677563
:100700006172643D00696E74657276616C3D007063
:10071000617573655F616C61726D3D004163636516
:1007200073732064656E6965640053657420616449
:100730006D696E73206F6B005365742061646D6921
:100740006E73206F6B0070686F6E65733D00416360
:10075000636573732064656E696564007265706FAC
:1007600072743B004163636573732064656E6965F1
:10077000640068656C707365743B00416363657306
:10078000732064656E6965640068656C7067657484
:100790003B004163636573732064656E6965640043
:1007A00068656C703B00526573657420636F6D6D96
:1007B000616E642061636365707465642E004163DB
:1007C000636573732064656E696564007265626F4A
:1007D0006F743B0044657669636520726573657468
:1007E0002064656661756C742C2073656E643A20B4
:1007F00070686F6E65733D4E554D4245525F50486F
:100800004F4E4553312C4E554D4245525F50484F47
:100810004E4553323B004163636573732064656EDC
:1008200069656400726573657464656661756C748E
:100830003B006572726F720073656E645F736D73F7
:100840000D0A004163636573732064656E696564B6
:10085000006765743A006572726F72006F6B0041D9
:1008600063636573732064656E69656400736574A2
:100870003A006E6F742070686F6E650070686F6EFE
:1008800065206F6B007365743A696E74657276618A
:100890006C3D3B63616C6C733D3B736D733D3B67BB
:1008A000756172643D3B6175746F67756172643D1B
:1008B0003B706F7765725F7265706F72743D3B62FB
:1008C000757A7A65723D3B67756172645F726570B7
:1008D0006F72743D3B6578745F74656D703D3B006D
:1008E0000000000000000000000000000000000008
:1008F00000000000000000000000000000000000F8
:1009000000000000000000000000000000000000E7
:1009100000000000000000000000000000000000D7
:100920000000000000006765743A70686F6E6573C0
:100930003B63616C6C733B736D733B696E74657282
:1009400076616C3B706F7765725F7265706F727401
:100950003B6578745F74656D703B000000000000BB
:100960000000000000000000000000000000000087
:100970000000000000000000000000000000000077
:100980000000000000000000000000000000000067
:100990000000000000000000000000000000000057
:1009A0000000000000000000000000000000000047
:1009B0000000000000000000000000000000000037
:1009C0000000000000000068656C707365743B688F
:1009D000656C706765743B7265706F72743B7068AC
:1009E0006F6E65733B7265626F6F743B72657365A2
:1009F0007464656661756C743B0000000000000063
:100A000000000000000000000000000000000000E6
:100A100000000000000000000000000000000000D6
:100A200000000000000000000000000000000000C6
:100A300000000000000000000000000000000000B6
:100A400000000000000000000000000000000000A6
:100A50000000000000000000000000000000000096
:100A6000000000000000000011241FBECFEFD8E0FE
:100A7000DEBFCDBF11E0A0E0B1E0E8E1F4E602C0E6
:100A800005900D92AC3DB107D9F724E0ACEDB1E093
:100A900001C01D92A03AB207E1F70E94D31D0C9449
:100AA000F9310C940000F894209A84E793E00197C0
:100AB000F1F700C0209895E09A95F1F784E6189B2D
:100AC00008C092E09A95F1F700C08150C1F7789480
:100AD000089593B1892F817090FFFBCF789408958A
:100AE000F89498E00DC0209A23E92A95F1F700C008
:100AF000209828E12A95F1F700C08695915061F081
:100B000080FFF1CF209A2FE02A95F1F720982DE968
:100B10002A95F1F70000F1CF78940895F894209A7F
:100B200085E08A95F1F720989CE09A95F1F700000E
:100B300083B194EC9A95F1F700C078948170089590
:100B40000F931F93CF93DF93F89408E010E0D0E069
:100B5000C0E003C00150110941F0D695C7950E942D
:100B60008E058823B9F3C068F5CF78948C2FDF9178
:100B7000CF911F910F910895CF93DF930E9453055A
:100B80008CEC0E94700584E40E947005189BFECFD7
:100B90000E9453058CEC0E9470058EEB0E9470053C
:100BA0000E94A005C82F0E94A005482F88238CF022
:100BB000D0E0CE01880F991F880F991F8C0F9D1FC1
:100BC000942B6AE070E00E948729862FDF91CF91F5
:100BD0000895C1954095ECCFCF92DF92EF92FF92AE
:100BE000CF93DF9300D000D0CDB7DEB70E94E310E3
:100BF0008823B9F00E94E310813009F466C0809127
:100C0000FC018C3009F4DDC11092FC010F900F90B3
:100C10000F900F90DF91CF91FF90EF90DF90CF90EA
:100C200008950E94942889839A830E94F810811164
:100C300019C029813A812F3F3F4F19F40E94FE10BD
:100C4000D9CF81E00E94F5100E94C8100E94FE10CA
:100C50005CE3859FC0011124A981BA818A179B0793
:100C600048F610C00E94FE10BCE38B9FC001112407
:100C700029813A818217930708F0BCCF2F3F3F4F5D
:100C800009F4B8CF81E00E94E61082E193E00E946F
:100C900007260E94C8108FEF9FEF0E948C2886E9DC
:100CA00090E00E944D268CE291E00E94CD2786E9DB
:100CB00090E00E944D260E94EC10813009F09ACFFE
:100CC0008BEF92E00E94C11795CF0E94FF1E8823F0
:100CD00029F08091FC01882309F442C08091F3013E
:100CE000813009F47CC00E949A1F882329F08091EA
:100CF000FC01882309F482C00E94C21F882309F4E2
:100D0000DDC08091FC01882309F49AC08091F20132
:100D1000813009F4DDC00E9422118111E7C0809169
:100D2000FC018B3009F4FBC0813009F41AC1823018
:100D300009F06CCF8DE292E00E9407260E94D41049
:100D4000813009F430C10E94DA10813009F434C1D5
:100D50001092FC0180E00E94E6100E94C81056CF5D
:100D60000E94F210811119C08091F301882351F083
:100D70008130A9F40E944C286230710581059105EB
:100D800070F4B1CF81E08093F30180E00E943D28B0
:100D900087EE92E00E940726A6CF1092F3010E94F0
:100DA0008527C62ED72EE82EF92E0E942211C80EB6
:100DB000D11CE11CF11CC092F801D092F901E09223
:100DC000FA01F092FB018BE08093FC0184EF91E04B
:100DD0000E944D2683ED92E00E9407267FCF0E945D
:100DE0004C28693071058105910508F47CCF88ECA9
:100DF00092E00E9407261092F30175CF0E943D28D1
:100E00000E948527C62ED72EE82EF92E0E94221189
:100E1000C80ED11CE11CF11CC092F801D092F9015E
:100E2000E092FA01F092FB0181E08093FC0184EFF3
:100E300091E00E944D2686EB92E00E9407265CCF4F
:100E40000E94F210811119C08091F201882351F0A3
:100E50008130A9F40E944C2862307105810591050A
:100E600070F430C081E08093F20180E00E943D2860
:100E700085EA92E00E94072625C01092F2010E94A6
:100E80008527C62ED72EE82EF92E0E942211C80ED5
:100E9000D11CE11CF11CC092F801D092F901E09242
:100EA000FA01F092FB0182E08093FC0184EF91E073
:100EB0000E944D2680E992E00E9407268091F2016F
:100EC000813031F08091FC01882309F49FCE23CF3B
:100ED0000E944C28693071058105910598F385E8D9
:100EE00092E00E9407261092F201ECCF0E94852723
:100EF00069837A838B839C838091F8019091F901B7
:100F0000A091FA01B091FB0129813A814B815C816A
:100F1000281739074A075B0708F001CF77CE84E727
:100F200092E00E9407260E94D410813061F00E9456
:100F3000DA10813089F080E00E94E6100E94C8102B
:100F40001092FC0163CE8BE091E00E94981780ED37
:100F500097E00E94CD27EBCF81E692E00E94C11777
:100F6000EACF82E592E00E9407260E94D4108130E9
:100F700061F00E94DA10813089F01092FC0180E06B
:100F80000E94E6100E94C81041CE85E191E00E94C7
:100F9000981780ED97E00E94CD27EBCF8FE392E08A
:100FA0000E94C117EACF8BE091E00E94981780ED74
:100FB00097E00E94CD27C7CE8AE192E00E94C11738
:100FC000C7CE89E092E00E9407261092FC018DE1D5
:100FD00091E00E94981718CE8093FC0108959FB766
:100FE000F8948091FC019FBF0895CF93DF9300D0C8
:100FF00000D0CDB7DEB78091F4019091F501A091BA
:10100000F601B091F701BC01CD010F900F900F9048
:101010000F90DF91CF910895ECE7F0E08081806C34
:101020008083EAE7F0E080818660808380818E7F24
:10103000808308951F93CF93DF93182FECE7F0E0A0
:101040008081807F8083193008F07EC0E12FF0E03E
:10105000E550FE4C0C94DC29ECE7F0E08081807FC9
:101060008083CAE7D0E0888180688883888188602F
:10107000888383B7826083BF84E190E00E94CD279C
:10108000888180648883EAE7F0E0908196FDFDCF57
:101090002EE140E050E0BA01EAE7F0E0C8E7D0E036
:1010A00093B7916093BF908196FDFDCF93B79E7FDC
:1010B00093BFF894A881B98178944A0F5B1F611D92
:1010C000711D215069F7EAE7F0E080818F77808316
:1010D000183009F43FC090E080E0112309F446C0C5
:1010E000DF91CF911F910895ECE7F0E0808181605E
:1010F0008083B7CFECE7F0E0808182608083B1CF5E
:10110000ECE7F0E0808183608083ABCFECE7F0E038
:10111000808184608083A5CFECE7F0E080818560EA
:1011200080839FCFECE7F0E080818660808399CF59
:10113000ECE7F0E080818760808393CFECE7F0E01C
:101140008081886080838DCFECE7F0E08081807FB4
:10115000808387CFCB01BA012EE130E040E050E040
:101160000E94BD29C90185529140BACFCB01BA0175
:101170002EE130E040E050E00E94BD29C901B0CF2F
:101180000F9380E00E941A08282F392F2A3382E01B
:1011900038078CF0C901813822E0920714F080E80A
:1011A00092E004E620E040E852E06AE372E00E9448
:1011B000F3110F91089581E00E94451B80E0F9CF63
:1011C0006F927F928F929F92AF92BF92CF92DF9257
:1011D000EF92FF920F931F93CF93DF93CDB7DEB7BC
:1011E000C45AD1090FB6F894DEBF0FBECDBF0E941E
:1011F0006C2820E831E541E050E00E949B29D22E86
:10120000C32E20E13EE040E050E00E949B29722E78
:10121000632ECF55DF4F688379838A839B83C15ABE
:10122000D0402CE330E040E050E00E949B2949018F
:101230002CE3289DC001299D900D1124CF55DF4F2F
:10124000E880F980C15AD040E81AF90A0E94D01DFE
:101250009F938F9385E391E09F938F938E010F5F10
:101260001F4F1F930F930E94A72E080F191FFF9265
:10127000EF929F928F926F927F92CF92DF9285E250
:1012800091E09F938F931F930F930E94A72E080FB7
:10129000191F0E94E3101F928F938BE191E09F939F
:1012A0008F931F930F930E94A72E080F191F0E9460
:1012B000320E282F082E000C330B3F938F9381E1C1
:1012C00091E09F938F931F930F930E94A72E080F77
:1012D000191F0E9404111F928F9389E091E09F9340
:1012E0008F931F930F930E94A72E080F191F0FB6FD
:1012F000F894DEBF0FBECDBF0E94A3131F928F9341
:1013000088EF90E09F938F931F930F930E94A72ED7
:10131000E82EF92E0F900F900F900F900F900F90D6
:101320008091F4019091F501A091F601B091F7013F
:10133000892B8A2B8B2BD1F4CE0101960E94F325A9
:10134000CC55DF4F0FB6F894DEBF0FBECDBFDF9197
:10135000CF911F910F91FF90EF90DF90CF90BF90B2
:10136000AF909F908F907F906F9008950E94C008DB
:101370001F928F9389EE90E09F938F930E0D1F1D08
:101380001F930F930E94A72E0F900F900F900F9016
:101390000F900F90D1CFCF93DF9300D000D0CDB777
:1013A000DEB78091F4019091F501A091F601B09122
:1013B000F701892B8A2B8B2B61F00E94DD10813085
:1013C00009F463C00F900F900F900F90DF91CF91B1
:1013D00008950E94DD108130A9F78091EC018823E7
:1013E00069F080910101882399F08091E6018130B4
:1013F00049F780910101813029F71FC081E0809376
:10140000EC011092EB0180EE90E00E940726E9CFFC
:101410000E948527DC01CB0188589F4FAF4FBF4FFB
:101420008093E7019093E801A093E901B093EA016A
:1014300081E0809301018093E6010E948527698302
:101440007A838B839C838091E7019091E801A0913E
:10145000E901B091EA0129813A814B815C818217CF
:101460009307A407B50708F0ADCF1092E60181E01D
:10147000809300011092E50183ED90E00E94072621
:101480008EEB90E00E94C1179DCF2FB7F89480910A
:10149000F4019091F501A091F601B091F7012FBFF1
:1014A0008093E1019093E201A093E301B093E40102
:1014B0000E948527DC01CB0188589F4FAF4FBF4F5B
:1014C0008093E7019093E801A093E901B093EA01CA
:1014D0008091EC01813009F450C08091000181308D
:1014E00009F452C08091E001813009F45BC0809121
:1014F000EB01813009F066CF0E94852769837A83EA
:101500008B839C838091DC019091DD01A091DE01B1
:10151000B091DF0129813A814B815C818217930769
:10152000A407B50708F04ECF83E890E00E94072695
:101530000E948527DC01CB01865A9F4FAF4FBF4FDA
:101540008093DC019093DD01A093DE01B093DF0175
:101550000E94C008893108F035CF8091E5018111E2
:1015600031CF81E08093E5010E94DA10813061F192
:1015700088E690E00E94072625CF1092EC0185EBCB
:1015800090E00E940726A9CF8091E1019091E201AD
:10159000A091E301B091E40189379105A105B1055E
:1015A00008F4A0CF1092E001109201011092000106
:1015B00081E08093EB0187EA90E00E94072681E9B1
:1015C00090E00E94C11793CF84E790E00E94C1177A
:1015D000CFCFCF92DF92EF92FF920F931F93CF93D3
:1015E000DF93CDB7DEB7C05AD1090FB6F894DEBF8E
:1015F0000FBECDBFE82EF92E0E94BE1B0E94D01D4B
:101600009F938F938DEF91E09F938F938E010F5F48
:101610001F4F1F930F930E94A72E080F191F0E94A0
:10162000E3101F928F9383EF91E09F938F931F930B
:101630000F930E94A72E080F191F88E00E941A0816
:101640009F938F9385EE91E09F938F931F930F93BA
:101650000E94A72E080F191F0E942B110FB6F89495
:10166000DEBF0FBECDBF813009F443C00E94A3137B
:101670001F928F938DEC91E09F938F931F930F9305
:101680000E94A72E080F191F0E9404111F928F930A
:1016900081EC91E09F938F931F930F930E94A72E4D
:1016A000C82ED92E0FB6F894DEBF0FBECDBF8091E5
:1016B000F4019091F501A091F601B091F701892B09
:1016C0008A2B8B2B79F56E2D7F2DCE0101960E94F2
:1016D000C815C056DF4F0FB6F894DEBF0FBECDBFA2
:1016E000DF91CF911F910F91FF90EF90DF90CF90FE
:1016F00008950E94320E282F082E000C330B3F93C2
:101700008F9387ED91E09F938F931F930F930E9488
:10171000A72E080F191F0F900F900F900F900F908A
:101720000F90A4CF0E94C0081F928F9382EB91E08C
:101730009F938F930C0D1D1D1F930F930E94A72E37
:101740000F900F900F900F900F900F90BCCFCF93F2
:10175000DF9300D000D0CDB7DEB78091F1018130AA
:10176000F1F00E94EA1F811121C00E948527698340
:101770007A838B839C838091ED019091EE01A091FF
:10178000EF01B091F0010596A11DB11D29813A81AB
:101790004B815C8182179307A407B50798F00F90DF
:1017A0000F900F900F90DF91CF91089581E080937B
:1017B000F10186E291E00E94F32584EF91E00E941E
:1017C0004D26D3CF0E9485276093ED017093EE01E3
:1017D0008093EF019093F0010E942B118130B1F0C2
:1017E00088E00E941A0882349105CCF281E080934F
:1017F000F10187E691E00E94072680E69AEE0E94BA
:101800003A2681E491E00E94C117C9CF0E94320EAE
:10181000823434F381E08093F1018CE991E00E94FD
:10182000072680E69AEE0E943A2686E391E00E941F
:10183000981786E891E00E94C117D2CF05C00E9498
:10184000C52785E00E94FC2780E00E941A088434A6
:101850009240ACF3089518954A9914C08091F40110
:101860009091F501A091F601B091F7010196A11DAB
:10187000B11D8093F4019093F501A093F601B0930C
:10188000F701089580E090E0DC01F3CF0E94021F91
:10189000811101C0089580E00E9416110E94C810B5
:1018A00084E690E00E944D2684E690E00E94CD27D9
:1018B00084E690E00E944D2684E690E00E94CD27C9
:1018C00084E690E00E944D2684E690E00E94CD27B9
:1018D000F894FFCFCF93DF93CDB7DEB72C970FB639
:1018E000F894DEBF0FBECDBFCE010B9620919A04B7
:1018F00030919B0421153105C9F04AE0BE016F5FAC
:101900007F4F821B930B0E94572E8EE391E00E9423
:10191000E325CE0101960E94F3252C960FB6F8948C
:10192000DEBF0FBECDBFDF91CF91089520EA34E036
:10193000E4CF282F392F862F662399F0F9018150A3
:101940002F5F3F4F280F311D80E09191892798E04C
:101950004CE8869508F484279A95D9F7E217F3079F
:10196000A1F70895E82FF92FA081B1818E9192817E
:1019700021E030E0A90102C0440F551F9A95E2F71B
:10198000842B8C9384E793E00197F1F700C0A0814A
:10199000B1814E918281B90102C0660F771F8A958D
:1019A000E2F7CB01809584238C9374EC7A95F1F760
:1019B00000C0A081B18112978C91928102C0220F48
:1019C000331F9A95E2F78223E1EEF2E03197F1F7C7
:1019D000000008950F931F93CF93DF93E82FF92F03
:1019E00028E030E091E0C1E0D0E016C083E98A95BC
:1019F000F1F700C0A081B1818E9142818E0102C0B9
:101A0000000F111F4A95E2F7A801409548234C9317
:101A1000990F2150310929F1A081B1818E91428124
:101A20008E0102C0000F111F4A95E2F7802B8C93A4
:101A3000862F8923D9F215E21A95F1F7A081B18199
:101A40008E9142818E0102C0000F111F4A95E2F76C
:101A5000A801409548234C931EE61A95F1F700C063
:101A6000D7CFDF91CF911F910F910895E82FF92FD4
:101A7000A081B1812E91328181E090E0AC0102C061
:101A8000440F551F3A95E2F7242B2C932AE02A9510
:101A9000F1F7A081B1812E91328102C0880F991F88
:101AA0003A95E2F7809582238C9383E18A95F1F74A
:101AB00000C0A081B18112978C9190E0228102C078
:101AC000959587952A95E2F7817096E79A95F1F7B3
:101AD00008954F925F926F927F928F929F92AF92F2
:101AE000BF92CF92DF92EF92FF920F931F93CF930B
:101AF000DF93612C0F2EFDEFEF2EF1E0FF2EF02D86
:101B00000F2EF5E28F2E912CF02D482C592C0F2EF4
:101B1000F8E0AF2EF2E0BF2EF02D04C088EE93E087
:101B20000E94CD27D7014C9211965C921197129684
:101B30001C921297F40180818E7F8083ED91FC913D
:101B400082918E7F8083C7010E94B20C782E8823F9
:101B500061F082E393E00E9407266394F3E06F163E
:101B600009F460C06110DACFDDCF63E3C7010E94E2
:101B7000EA0C0F2EF0E0CF2EF2E0DF2EF02D10C099
:101B8000110F219739F0C7010E94360D8823C1F348
:101B9000012BF6CFD6010D936D01AA15BB0529F0D7
:101BA000072DC8E0D0E011E0EECF67E080E092E0E2
:101BB0000E94990CF70192858913CBCF83818031E4
:101BC00009F441C0883229F6EDEFF1E081E090E0C0
:101BD000958B848B8FE1878785E193E00E940726B0
:101BE0008091110290911202019791F18DEF91E095
:101BF0000E94B20C6CEC8DEF91E00E94EA0C6EE456
:101C00008DEF91E00E94EA0CCDEFD1E06D85CE0121
:101C10000E94EA0C6E85CE010E94EA0C8C899D8997
:101C20000197D1F0DF91CF911F910F91FF90EF902D
:101C3000DF90CF90BF90AF909F908F907F906F90EC
:101C40005F904F9008951092120210921102C4CF2B
:101C50008FE180930C02CACF60910C02CE010E94EA
:101C6000EA0CE0CFCF92DF92EF92FF920F931F9397
:101C7000CF93DF9300D000D000D0CDB7DEB70E9465
:101C8000690D8DEF91E00E94B20C6CEC8DEF91E04C
:101C90000E94EA0C64E48DEF91E00E94EA0C8091CE
:101CA0000C028F3389F18F35B9F18F3151F0FFEF8D
:101CB0002FED30E1F15020403040E1F700C000004E
:101CC00008C020E73DE142E0215030404040E1F7CC
:101CD00000C08DEF91E00E94B20C6CEC8DEF91E0B2
:101CE0000E94EA0C6EEB8DEF91E00E94EA0C0F2E41
:101CF000F8E0EF2EF2E0FF2EF02D0F2EF1E1CF2EC7
:101D0000F2E0DF2EF02D28C051EE8AE394E051502E
:101D100080409040E1F7DDCFAFEFBFE6E8E0A150B3
:101D2000B040E040E1F700C00000D3CF110F89813F
:101D30009A8101979A838983892B41F08DEF91E0F5
:101D40000E94360D882391F3012BF0CFD7010D931C
:101D50007D01CA16DB0639F048E050E05A8349831A
:101D600011E000E0EBCF68E088E092E00E94990C7F
:101D70009091100289134EC1EDEFF1E02485838527
:101D8000922F1FEF22230CF011E0209111023091CD
:101D90001202232B09F446C020910C022F3509F4BE
:101DA0009DC008F068C02F3109F4D4C02F3309F06A
:101DB00060C09C0199230CF48AC0C90199230CF4DA
:101DC0008BC09595879595958795AC0114039001E7
:101DD000159F300D1124C901330FAA0BBB0B89834A
:101DE0009A83AB83BC83BC01CD010E94292AE62FD4
:101DF00020E030E040E85EE3E9837A838B839C83D4
:101E000069817A818B819C810E948D2A69837A8382
:101E10008B839C8369817A818B819C810E94F129CB
:101E2000862FF9C0282F880F330B440B550B2983BD
:101E30003A834B835C83CA01B9010E94292A20E0BE
:101E400030E040E05FE369837A838B839C83698120
:101E50007A818B819C810E948D2A69837A838B830E
:101E60009C8369817A818B819C810E94F129862FD4
:101E7000D2C080E0D0C02F3741F5282F880F330B18
:101E8000440B550B29833A834B835C83CA01B90108
:101E90000E94292AE62F20E030E040E85DE3E98354
:101EA0007A838B839C8369817A818B819C810E9458
:101EB0008D2A69837A838B839C8369817A818B8164
:101EC0009C810E94F129862FA6C080E0A4C0222711
:101ED0003327281B390B71CF039673CF9C019923AD
:101EE00094F1C9019923A4F195958795AC01140348
:101EF0009001159F300D1124C901330FAA0BBB0BA4
:101F000089839A83AB83BC83BC01CD010E94292ABB
:101F1000E62F20E030E040E05EE3E9837A838B83C4
:101F20009C8369817A818B819C810E948D2A69833F
:101F30007A838B839C8369817A818B819C810E94C7
:101F4000F129862F68C022273327281B390BC9CFD8
:101F50000196CACF9C0199230CF457C0C901330FD5
:101F6000AA0BBB0B89839A83AB83BC83BC01CD01D5
:101F70000E94292AE62F20E030E040E05EE3E9837A
:101F80007A838B839C8369817A818B819C810E9477
:101F90008D2AF62E072F8E839D83212F110F330B51
:101FA000440B550B29833A834B835C83CA01B901E7
:101FB0000E94292A262F372F482F592FF9820A836A
:101FC0008E818B839D819C8369817A818B819C81A9
:101FD0000E948D2AE62F20E030E040E05FE3E983B5
:101FE0007A838B839C8369817A818B819C810E9417
:101FF0008D2A69837A838B839C8369817A818B8123
:102000009C810E94F129862F06C022273327281B96
:10201000390BA4CF80E026960FB6F894DEBF0FBE32
:10202000CDBFDF91CF911F910F91FF90EF90DF9087
:10203000CF9008959C018FB7F894F999FECF32BDE7
:1020400021BD60BD94E09FBB92E09FBB8FBF089510
:10205000282F392FF999FECF32BD21BDF89A80B5CE
:102060000895EF92FF920F931F93CF93DF93282F42
:10207000392F062F172FE42EF52E0115110581F0AB
:10208000020F131FE901E21AF30ACE018E0D9F1D04
:10209000FE01219660810E941A10C017D107A9F78E
:1020A000DF91CF911F910F91FF90EF900895EF92E4
:1020B000FF920F931F93CF93DF93282F392F062F73
:1020C000172FE42EF52E0115110581F0020F131FB5
:1020D000E901E21AF30ACE018E0D9F1D0E9428101D
:1020E000FE0121968083C017D107A9F7DF91CF9118
:1020F0001F910F91FF90EF9008950E944C286093DC
:10210000130270931402809315029093160247E510
:1021100050E070E060E083E192E00E948F3108952A
:102120001F93CF93DF93182F47E550E070E060E0F6
:1021300083E192E00E945D3180911E028B3A31F47E
:10214000111121C0DF91CF911F910895C3E1D2E019
:1021500087E5FE0111928A95E9F78FE493E00E94EA
:10216000072681E08C838D838E838BEA8B878DE0BD
:10217000E4E4F1E0A4E2B2E001900D928A95E1F787
:102180000E947D10DDCF809113020E943D28DACF9E
:1021900047E550E070E060E083E192E00E946D313D
:1021A00008958093200208958091200208958093DD
:1021B00021020895809121020895809119020895C5
:1021C00080931902089580911C02089580931C0247
:1021D000089580931A02089580911A0208958093B9
:1021E0001F02089580911F02089580931D02089593
:1021F00080911D020895809317020895809117021F
:102200000895809322020895809122020895E3E1C7
:10221000F2E087858F5F8787089527E0829FC0015E
:102220001124880F991F8C5D9D4F089580931E0285
:10223000089580911E02089580931B020895809155
:102240001B02089580911802089580931802089542
:10225000809323020895809123020895982F80EDA2
:10226000890F8A3078F08FEB890F863038F08FE94C
:10227000890F863030F489EA890F089589EC890F37
:10228000089580E00895CF93DF9300D000D0CDB7BC
:10229000DEB70E94852769837A838B839C83809134
:1022A000720290917302A0917402B091750229811B
:1022B0003A814B815C81281B390B4A0B5B0BDA019D
:1022C000C9010B97A105B10528F080917102811118
:1022D000109271020E94DA28882309F46CC00E94CF
:1022E00085276093720270937302809374029093B7
:1022F00075020E94CD2890917102992329F09330A4
:1023000021F190E080E059C0982F882309F45CC047
:102310008D3009F45CC08A3009F45CC080939D0262
:1023200021E030E03093700220936F0283E08093CD
:1023300071029E3319F090E080E03FC010929E023F
:10234000109271028DE992E038C020916F023091B5
:102350007002F901E356FD4F8083A9014F5F5F4F83
:102360005093700240936F02403491E0590788F413
:102370004230510590F1A9014150510924563D4F79
:10238000D9019C919D3061F58A3061F090E080E048
:1023900014C01092700210926F021092710290E0BD
:1023A00080E00BC043565D4FFA011082109271021B
:1023B0008DE992E002C090E080E00F900F900F90C6
:1023C0000F90DF91CF91089590E080E0F6CF90E0FC
:1023D00080E0F3CF90E080E0F0CF90E080E0EDCFC0
:1023E00090E080E0EACF0F931F93E62FF72FBC0118
:1023F0006E1B7F0B021B110B609FC001619F900D34
:10240000709F900D1124BA016E1B7F0B0E947329DF
:10241000822F860F1F910F910895CF93DF930E9413
:102420004311C82FD92F80E0209769F0CE010E9478
:10243000F3256BE874E0CE010E94C62D892B31F0A4
:1024400081E080938D02DF91CF91089564E874E07C
:10245000CE010E94C62D892BF1F06BE270E0CE0117
:1024600006960E940B2ED82FC92F61E00E94812072
:10247000811104C081E080938B02E5CF81E08093DD
:102480008C028DE0ED2FFC2FAFE8B2E001900D92B1
:102490008A95E1F7EFCF6DE774E0CE010E94C62D7B
:1024A000892B29F0CE010E94061381E0CCCF81E078
:1024B000CACFCF92DF92EF92FF921F93CF93DF9319
:1024C00000D000D000D0CDB7DEB7E82EF92E162F01
:1024D0007E830E946527DC01CB018E0D9F1DA11D0F
:1024E000B11D6C017D0107C00E946527C616D70685
:1024F000E806F906B8F00E940D128D838823A1F337
:10250000612F7E818DE992E00E94162E892B79F44D
:1025100061E575E08DE992E00E94C62D892B59F3A3
:102520001D8207C087E595E00E94072602C091E062
:102530009D838D8126960FB6F894DEBF0FBECDBF6A
:10254000DF91CF911F91FF90EF90DF90CF90089592
:102550001F93CF93DF93182FD92FC62F0E943529B1
:1025600085E495E00E941D2988EC90E00E94CD272B
:102570000E94352981E395E00E941D29812F9D2F1E
:102580000E94FF2884E295E00E941D298C2F0E9462
:10259000152981E295E00E941D2962E571E080ED38
:1025A00097E00E945912982F81E0913009F080E065
:1025B000DF91CF911F910895CF93C1E015C088ECB2
:1025C00090E00E94CD270E9435298BEE94E00E9476
:1025D0001D2962E571E080ED97E00E94591281119A
:1025E00013C0C53088F4CF5FC13049F70E94352948
:1025F0008BEE94E00E941D2962E571E080ED97E08A
:102600000E945912882379F3CF910895FC018781A4
:10261000282F082E000C330B205331092A303105A6
:1026200010F080E00895833309F446C0E4F4813368
:1026300099F1823381F484EF91E00E94CD2780E00C
:102640000E94E61060E385E591E00E94A8120E94D6
:10265000C81081E00895803321F40E94DC1281E0EB
:10266000089581E00895843309F453C0853391F4CB
:1026700029980E94452684EF91E00E94CD2760E3CF
:1026800082E791E00E94A81288EE93E00E94CD2795
:1026900081E0089581E0089584EF91E00E94CD27C4
:1026A00081E00E94E61060E387E591E00E94A812B5
:1026B0000E94C81081E0089584EF91E00E94CD2728
:1026C00080917F029091800218161906ACF460E3A5
:1026D0008BE691E00E94A81280ED97E00E94CD2742
:1026E0000E94DC1288EC90E00E94CD278FE892E0F7
:1026F0000E94E90A81E0089560E383E691E00E9488
:10270000A81284EC99E00E94CD270E94DC1281E09F
:10271000089529980E94452684EF91E00E94CD27D4
:1027200080E00E94E61060E385E591E00E94A81237
:102730008CED95E00E94CD2781E080938A020E9473
:10274000DC1281E0089582E390E00E94CD270E9490
:10275000352985EC94E00E941D296CE771E080ED3D
:1027600097E00E9459128823D1F16AE370E08DE965
:1027700092E00E940B2EE82FF92F309769F18281A9
:10278000082E000C990BC0970A9710F080E008956E
:102790004AE050E070E060E0CF0102960E944A2CCF
:1027A000462F572F682F792F40325105610571054B
:1027B000A8F44250510984E6849F9001859F300D12
:1027C0001124AFE9B6E40E94E22996958795969583
:1027D000879596958795089580E0089580E00895FF
:1027E000CF92DF92EF92FF92CF93DF9300D000D091
:1027F0000F92CDB7DEB7E82EF92E0E946527DC01D7
:10280000CB018E0D9F1DA11DB11D6C017D010E948C
:102810000D128D8381110CC00E946527C616D70644
:10282000E806F906A0F781EF94E00E94072602C0AF
:1028300091E09D838D810F900F900F900F900F90DE
:10284000DF91CF91FF90EF90DF90CF900895CF93DD
:10285000C1E014C084E690E00E94CD270E94352993
:1028600087E195E00E941D2980ED97E00E94F0131A
:10287000811112C0C53008F068C0CF5FC13051F778
:102880000E94352987E195E00E941D2980ED97E09F
:102890000E94F013882389F360E175E08DE992E0EE
:1028A0000E94C62D892B99F16CE270E08DE992E0CF
:1028B0000E940B2E282F392F21153105D9F26CE2F9
:1028C00070E0C90101960E940B2EE82FF92F309776
:1028D00089F2E1818E2F0E2E000C990BC0970A977A
:1028E00048F6E053E83088F40E2E000CFF0BEC5F46
:1028F000FD4C0C94DC2983E029C086E027C087E0EA
:1029000025C088E023C084E021C080E01FC06AE0C9
:1029100075E08DE992E00E94C62D892B09F0AACFBF
:1029200063E075E08DE992E00E94C62D282F392FD3
:102930002115310509F49ECFC9010E94061382E0DA
:1029400005C082E003C085E001C080E0CF9108951A
:10295000CF92DF92EF92FF92CF93DF9300D000D01F
:10296000CDB7DEB7C62ED72EE82EF92E0E946527EA
:10297000C60ED71EE81EF91E88EC90E00E94CD27F7
:102980000E94352984ED94E00E941D2907C00E9411
:102990006527C616D706E806F90680F10E940D12D3
:1029A0008823A9F36DEC74E08DE992E00E94C62DB6
:1029B000282F392F2115310589F36CE270E0C90108
:1029C0000E940B2E282F392F2115310539F34AE0AB
:1029D00050E070E060E0C90101960E944A2CDC01E1
:1029E000CB018B7F0197A105B10521F010928E02DA
:1029F00080E005C081E080938E0201C080E00F90EE
:102A00000F900F900F90DF91CF91FF90EF90DF909C
:102A1000CF900895CF92DF92EF92FF920F931F9382
:102A2000CF93DF9300D000D00F92CDB7DEB7082F41
:102A3000192F0E94652769837A838B839C836B019E
:102A40007C01C00ED11EE11CF11C0DE912E00BC08F
:102A50000E94652769837A838B839C83C616D70679
:102A6000E806F906A0F00E940D128D83882381F3F9
:102A7000D8018C918E3349F060EB74E0C8010E945C
:102A8000C62D892B81F31D8202C0B1E0BD838D81EB
:102A90000F900F900F900F900F90DF91CF911F919B
:102AA0000F91FF90EF90DF90CF9008950F931F93B9
:102AB000CF93DF93082F192F7F936F9381EA94E0D0
:102AC0009F938F938DE992E09F938F930E94A72EFF
:102AD0000F900F900F900F900F900F90C1E0D0E0EB
:102AE00029C08CE291E00E94CD270E9435298DE912
:102AF00092E00E94FF2888EB9BE00E940A15882341
:102B0000B1F00E943529802F912F0E94FF2884E187
:102B100090E00E94CD278AE10E94152962E571E0CC
:102B200080ED97E00E945912D82F813039F1CA30D8
:102B300048F5CF5FC130A9F60E9435298DE992E0B2
:102B40000E94FF2888EB9BE00E940A15882389F3E6
:102B50000E943529802F912F0E94FF2884E190E068
:102B60000E94CD278AE10E94152962E571E080ED7F
:102B700097E00E945912D82F8130D9F681E08093D6
:102B80000201D1E08D2FDF91CF911F910F91089518
:102B9000FF920F931F93CF93DF93F82E092F162FD9
:102BA000D72F80917F0290918002C0E018161906FD
:102BB0000CF04DC060ED77E080E090E00E94A8143A
:102BC0008823F1F188EC90E00E94CD27DF931F93DA
:102BD00086EB94E09F938F938DE992E09F938F9380
:102BE0000E94A72E0E9435298DE992E00E94FF28BD
:102BF00088EE93E00E940A15C82F0F900F900F9057
:102C00000F900F900F90882349F18F2D902F0E94E5
:102C1000FF2884E690E00E94CD278AE10E941529D2
:102C200062E871E080E69AEE0E945912C82F811185
:102C30000EC0612F7D2F8F2D902F0E94561507C03B
:102C4000612F7D2F8F2D902F0E945615C0E08C2F65
:102C5000DF91CF911F910F91FF900895612F7D2FEC
:102C60008F2D902F0E945615F2CFFF920F931F9336
:102C7000CF93DF93F82E092F162FD72F80917F0245
:102C800090918002C0E0181619060CF04DC060ED5E
:102C900077E080E090E00E94A8148823F1F188ECAE
:102CA00090E00E94CD27DF931F9382E994E09F93E9
:102CB0008F938DE992E09F938F930E94A72E0E949D
:102CC00035298DE992E00E94FF2888EE93E00E946A
:102CD0000A15C82F0F900F900F900F900F900F9024
:102CE000882349F18F2D902F0E941D2984E690E0C2
:102CF0000E94CD278AE10E94152962E871E080E6F2
:102D00009AEE0E945912C82F81110EC0612F7D2F9B
:102D10008F2D902F0E94561507C0612F7D2F8F2D6C
:102D2000902F0E945615C0E08C2FDF91CF911F91FC
:102D30000F91FF900895612F7D2F8F2D902F0E946E
:102D40005615F2CFBF92CF92DF92EF92FF920F9380
:102D50001F93CF93DF9300D000D00F92CDB7DEB793
:102D6000B82E9983C62ED72E0E94DC1220917F02A6
:102D70003091800280E0121613069CF580918E023D
:102D8000882379F11D820F2EF9ECEF2EF5E0FF2E4E
:102D9000F02D0DE912E088EE93E00E94CD278D81A1
:102DA0008F5F8D8399819F93BF92FF92EF921F93C4
:102DB0000F930E94A72E0E943529C8010E94FF2868
:102DC00062E571E080ED97E00E9459120F900F903C
:102DD0000F900F900F900F90811112C09D81933032
:102DE000D1F60F900F900F900F900F90DF91CF9131
:102DF0001F910F91FF90EF90DF90CF90BF900895BB
:102E000088EC90E00E94CD2786EB95E00E94072693
:102E100004C084EF91E00E94CD270E9427148530E2
:102E2000C1F388EC90E00E94CD270E9427148630E1
:102E300009F188EC90E00E94CD270E94271482308F
:102E4000F1F080EA95E00E940726BD81B33009F0D9
:102E5000A2CF0E94EF07823009F455C0813009F4F7
:102E600059C08B3009F45DC080E0BBCF88EE93E0A1
:102E70000E94CD270E9427148630C1F3DACF80ED5F
:102E800097E00E94CD2760E38C2D9D2D0E94A81213
:102E900088EB9BE00E94CD2760E38C2D9D2D0E9446
:102EA000A81288EB9BE00E94CD2760E389E891E0BF
:102EB0000E94A8120E94852769837A838B839C8352
:102EC0006B017C01A8E2CA0ED11CE11CF11C04C0FC
:102ED00080ED97E00E94CD270E942714823059F49C
:102EE0000E94852769837A838B839C836C157D057B
:102EF0008E059F0568F38BEA95E00E9407260E94E5
:102F0000DC1281E06ECF6B2D79818DE895E00E9417
:102F10003516AACF6B2D798187E795E00E9435168B
:102F2000A3CF6B2D798184E695E00E9435169CCF66
:102F30001F93CF93DF93182FD92FC0E010C088EED6
:102F400093E00E94CD278C2F0E940D11612F7D2FC1
:102F50000E94A21620918A02213069F0CF5F8C2F47
:102F60000E940D11FC0120812B3229F4C53019F08B
:102F7000CC2349F3E4CF10928A02DF91CF911F91C5
:102F800008951F93CF93DF93D82F192F80917F023D
:102F900090918002C0E01816190674F0DF91CF916D
:102FA0001F9108958C2F0E940D11682F792F8D2F5E
:102FB000912F0E943516CF5F8C2F0E940D11FC01BE
:102FC00020812B3259F7C53049F3CC2359F388EED1
:102FD00093E00E94CD27E6CFE82FF92F80818B3236
:102FE000A9F49F012F5F3F4FAF01435F5F4FF9018E
:102FF00080812F5F3F4F082E000C990BC0970A97D6
:1030000038F42417350799F781E0089580E0089592
:1030100080E00895BF92CF92DF92EF92FF920F93DC
:103020001F93CF93DF93C0910201CC23E9F08091ED
:103030007F0290918002C0E018161906ACF484E675
:1030400090E00E94CD270E94352986E694E00E94F8
:103050001D296FE871E088E893E10E9459128130E0
:1030600071F010920201C0E08C2FDF91CF911F917F
:103070000F91FF90EF90DF90CF90BF9008956AE39B
:1030800070E08DE992E00E940B2E282F392F211538
:10309000310509F4ABC02F5F3F4F40E0E9012F5FDE
:1030A0003F4F8881082E000C990BC0970A9738F083
:1030B0004F5F453099F710920201C0E0D5CF4530FF
:1030C000D1F34AE050E070E060E0CE010E944A2C6B
:1030D000C62ED72EE82EF92EC114D104E104F10436
:1030E00009F480C06CE270E0CE010E940B2E282F04
:1030F000392F21153105C1F06CE270E0C9010E9441
:103100000B2E282F392F2115310571F06BE270E05D
:10311000C9010E940B2EC82FD92F209729F0CE016C
:103120000E94EC17811166C088EB9BE00E94CD27BE
:10313000DC2DBD2C8FE892E09F938F93DF92CF928E
:1031400084E594E09F938F938DE992E09F938F9312
:103150000E94A72E0E9435298DE992E00E94FF2847
:1031600066E971E080E69AEE0E9459122DB73EB7EB
:10317000285F3F4F0FB6F8943EBF0FBE2DBFC0E093
:10318000813009F071CFC3E00F2EF7E4EF2EF4E0A9
:10319000FF2EF02D0DE912E084E690E00E94CD278D
:1031A000BF92DF93FF92EF921F930F930E94A72E7F
:1031B0008BE394E00E9407260E943529C8010E94F3
:1031C000FF2862E571E080E797E10E9459120F90B5
:1031D0000F900F900F900F900F908130B1F0C15071
:1031E000D9F642CF10920201C0E03ECF1092020108
:1031F000C0E03ACF8DE0FE01AFE8B2E001900D9261
:103200008A95E1F710929C028FCFC82F2DCF84E6CC
:1032100090E00E94CD270E94352982E094E00E9430
:103220001D2962E571E088EA91E60E94591208952D
:103230008F929F92AF92BF92CF92DF92EF92FF92C6
:103240000F931F93CF93DF9300D000D00F92CDB791
:10325000DEB7F0908D02F11013C08F2D0F900F90FC
:103260000F900F900F90DF91CF911F910F91FF90D2
:10327000EF90DF90CF90BF90AF909F908F90089588
:1032800084E690E00E94CD2784E294E00E941D290C
:103290006FE871E088E893E10E945912F82E81E00E
:1032A000F812CFC06AE370E08DE992E00E940B2E25
:1032B000482F592F4115510559F34F5F5F4F90E04B
:1032C0008A014F5F5F4FD8012C91022E000C330B07
:1032D000205331092A30310520F09F5F953081F766
:1032E000D7CF9530A9F24AE050E070E060E0C80125
:1032F0000E944A2C862E972EA82EB92E8114910456
:10330000B1E0AB06B10420F66CE270E0C8010E94A7
:103310000B2E282F392F2115310509F4B9CF6CE276
:1033200070E0C9010E940B2E282F392F211531057D
:1033300009F4AECF6BE270E0C9010E940B2E082F9A
:10334000192F0115110581F0C8010E94EC1788237F
:1033500009F49ECF8DE0F801AFE8B2E001900D9244
:103360008A95E1F710929C0288E893E10E94F0139D
:10337000182F813029F00E94071910928D026DCF0D
:103380000E9465276B017C01E8EECE0EE3E0DE1EB5
:10339000E11CF11C0E9465276A837B838C839D83DB
:1033A0006C157D058E059F05A0F00E94DA28882304
:1033B00089F30E94CD288983898189830E946527AA
:1033C0006B017C01F8EECF0EF3E0DF1EE11CF11C77
:1033D000E1CF8DE992E00E94B32003E00F2EF7E1E8
:1033E000CF2EF4E0DF2EF02D0F2EFDE9EF2EF2E0D0
:1033F000FF2EF02D84E690E00E94CD279F928F92C1
:10340000DF92CF92FF92EF920E94A72E0E94352961
:10341000C7010E94FF2862E571E080E197E20E9407
:1034200059120F900F900F900F900F900F908130C6
:1034300011F00150F9F684E690E00E94CD27F12EBC
:103440000CCF0E94071910928D02F12C06CFCF935A
:10345000DF9300D000D0CDB7DEB780918B028823F8
:1034600009F45FC010928B0280918C02882309F4CA
:1034700056C00E9435298CEF93E00E941D2980EDF3
:1034800097E00E94CD270E94E310813009F441C0EB
:1034900060E385E591E00E94A81280ED97E00E942C
:1034A000CD2760E38DE991E00E94A81210928C0272
:1034B0000E948527DC01CB018896A11DB11D809358
:1034C0006B0290936C02A0936D02B0936E020E9407
:1034D0002714823031F588EB9BE00E94CD270E94B3
:1034E000852769837A838B839C8380916B0290917B
:1034F0006C02A0916D02B0916E0229813A814B81DC
:103500005C8182179307A407B50708F70E94DC12B5
:1035100008C060E387E591E00E94A812BECF0E9438
:10352000DC120F900F900F900F90DF91CF910895C4
:10353000CF92DF92EF92FF92CF93DF9300D000D033
:10354000CDB7DEB70E9485276B017C0188E5C80EE8
:1035500082E0D81EE11CF11C0CC00E948527C61613
:10356000D706E806F90608F48CC088EE93E00E94BE
:10357000CD270E94352987EF93E00E941D2962E53F
:1035800071E088EE93E00E945912882331F384EFB2
:1035900091E00E94CD270E94352980EF93E00E94A0
:1035A0001D2980ED97E00E94CD270E94352984EEE9
:1035B00093E00E941D2962E571E088EB9BE00E9488
:1035C00059128823B1F284EF91E00E94CD270E9426
:1035D000352980ED93E00E941D2962E571E088EBBA
:1035E0009BE00E945912882321F284EF91E00E940F
:1035F000CD270E94352984EC93E00E941D2962E5C5
:1036000071E088EB9BE00E945912882309F4B1CF46
:1036100084EF91E00E94CD270E9435298BEA93E048
:103620000E941D2962E571E088E893E10E94591229
:10363000882309F49ECF84EF91E00E94CD270E9459
:10364000352988E993E00E941D2962E571E088EB45
:103650009BE00E9459128983882309F48ACF60ED88
:1036600077E080E090E00E94A81489810F900F908D
:103670000F900F90DF91CF91FF90EF90DF90CF9060
:10368000089581E00E94451B70CFCF93C82F0E9400
:1036900004118E3F78F40E9407110E94C8105F98B1
:1036A00083E00E94FC275F9A0E94981AC13031F093
:1036B000CF91089580E00E940111EFCFF894FFCFE1
:1036C000CF93DF9300D000D0CDB7DEB70E9485271F
:1036D00069837A838B839C8380917B0290917C02A7
:1036E000A0917D02B0917E0288589F4FAF4FBF4F8F
:1036F00029813A814B815C8182179307A407B50722
:1037000040F080E00F900F900F900F90DF91CF91DD
:10371000089560ED77E080E090E00E94A8148111A8
:103720001FC080917A028F5F80937A028FED94E0C0
:103730000E94072680917A02853074F40E948527C2
:1037400060937B0270937C0280937D0290937E0253
:103750000E940A1880E0D6CF80E00E94451BEECF81
:1037600010927A020E94852760937B0270937C02FC
:1037700080937D0290937E0281E0C4CF4F925F924E
:103780006F927F928F929F92AF92BF92CF92DF9271
:10379000EF92FF920F931F93CF93DF93CDB7DEB7D6
:1037A000C156D1090FB6F894DEBF0FBECDBF01E000
:1037B00010E075C084EF91E00E94CD270E9435296A
:1037C0008CE893E00E941D2986E893E00E941D2961
:1037D00082E893E00E941D2962E571E080E197E2B2
:1037E0000E945912813009F472C0033008F455C0A8
:1037F000C12CD12C7601033009F46CC10E948527BD
:10380000A2966CAF7DAF8EAF9FAFA2976C157D0572
:103810008E059F0508F045C10E944311082F192FFE
:103820000115110559F36FEA71E0C8010E94162EC7
:10383000892B09F451C162E270E0C80106960E942A
:103840000B2EA82EB92E80E0A114B10409F42AC1D0
:103850009FEFA91AB90A8CE5F501DE0111960190D6
:103860000D928A95E1F7DE0111967D014E01B1E6D8
:103870008B0E911CD12CC12C0F2EF1ED6F2EF02D43
:103880000F2EF0ED7F2EF02D0F2EF1E94F2EF02DA3
:103890000F2EF1E85F2EF02D49C01F5F0F5F111151
:1038A00089CF0E9435298CE893E00E941D2986E883
:1038B00093E00E941D2982E893E00E941D2962E5A1
:1038C00071E080E197E20E945912813031F70E9445
:1038D00085276B017C018AE0C80ED11CE11CF11C1C
:1038E00082EA91E00E94F325012F85CF813081F09B
:1038F000813509F43FC0803408F045C0F501EC0D76
:10390000FD1D70828058818382E0C80ED11C08C0E2
:10391000F501EC0DFD1D70825182E2E0CE0ED11C4E
:10392000A4E0EA0EF11CE814F904B9F1F701808172
:103930000E942E11082FD70111968C910E942E11F2
:103940000295007F080FF70182810E942E11182F27
:10395000D70113968C910E942E111295107F810F22
:103960000111C4CFF501EC0DFD1D8083BFEFCB1A13
:10397000DB0AD6CFF501EC0DFD1D60824182F2E03D
:10398000CF0ED11CCDCFF501EC0DFD1D6082805C0A
:10399000818392E0C90ED11CC3CFF501EC0DFD1D52
:1039A000108260E270E0C5010E940B2E282F392F93
:1039B0002115310509F461C060E270E0C90101968A
:1039C0000E940B2E082F192F0115110509F44BC069
:1039D0000F5F1F4FF80101900020E9F79F01215070
:1039E0003109201B310B80E001C08F5F482F50E070
:1039F0004217530730F4F801E40FF51F908190321D
:103A0000A1F7883008F043C0B80181E892E00E9435
:103A1000F22D66EB71E0C8010E94E02D082F192FEE
:103A200080E001151105F1F181E892E00E94F32593
:103A3000C8010E94922D282F392F309380022093A5
:103A40007F0280E0121613066CF581E02A30310502
:103A50004CF581E793E00E94072680E693E00E9400
:103A6000C11781E01FC0E1E8F2E085E692E79183AB
:103A7000808382E7828380E015C0E1E8F2E085E69A
:103A800092E79183808382E7828380E00BC0E1E844
:103A9000F2E085E692E79183808382E7828380E08B
:103AA00001C080E0CF59DF4F0FB6F894DEBF0FBEE4
:103AB000CDBFDF91CF911F910F91FF90EF90DF90DD
:103AC000CF90BF90AF909F908F907F906F905F90BE
:103AD0004F90089580E0E6CF81E0E4CFCF93DF936D
:103AE00000D000D0CDB7DEB70E94A52769837A83C6
:103AF0008B839C838091760290917702A0917802CB
:103B0000B091790280569A4FAF4FBF4F29813A81C9
:103B10004B815C8182179307A407B50738F00F909B
:103B20000F900F900F90DF91CF9108950E94BE1BD0
:103B3000811114C08091760290917702A091780251
:103B4000B0917902CC96A11DB11D8093760290931D
:103B50007702A0937802B0937902E1CF0E94A52763
:103B60006093760270937702809378029093790243
:103B7000D6CF80918E02813071F080916A028F5F82
:103B800080936A02833330F085B190E1892785B94B
:103B900010926A0208952C9A08958FE892E0089591
:103BA00081E892E00895CDB7DEB768970FB6F89434
:103BB000DEBF0FBECDBFA89589E2809360000E9452
:103BC000911E0E941E260E94B0250E949C28789477
:103BD0000E94460C83EE95E00E9407260E940C0886
:103BE0000E941E0C88E893E10E94CD270E94981A3B
:103BF000811135C081E00E9490100E942B1181300C
:103C0000A9F10E94C52788E893E10E94CD270E9470
:103C1000CB090E9407190E946A0C84E690E00E947A
:103C20004D2682ED95E00E9407260E948527462EAC
:103C3000572E682E792E0F2EF8EBAF2EF1E0BF2E07
:103C4000F02D8E01035F1F4F0F2EFFEBCF2EF1E003
:103C5000DF2EF02D9E012F5F3F4F790110C00E9493
:103C6000BE1B8AED95E00E940726C4CF0E94690D15
:103C7000C8CF0E940D120E94DA288111FACF0E944B
:103C8000C5270E94271A0E94EC050E94601B0E9413
:103C90006E1D0E94CB090E94A70B0E9418190E945A
:103CA00085276D8B7E8B8F8B988FD301C2010A96EF
:103CB000A11DB11D2D893E894F89588D821793070B
:103CC000A407B507C0F60E946A0C80E00E941A089B
:103CD0009F938F93BF92AF921F930F930E94842E56
:103CE000C8010E94F32584E690E00E94CD2788E079
:103CF0000E941A089F938F93DF92CF92FF92EF92C8
:103D00000E94842EC7010E94F3250E948527462E1B
:103D1000572E682E792E0FB6F894DEBF0FBECDBF9A
:103D2000AACF579A5F9A219A2998229A2A983B9863
:103D3000439855985D9A23982B9A3D98459A5298A6
:103D40005A98259A2D98249A2C983A98429A5498E1
:103D50005C9A3C98449A08950E949428019679F0C0
:103D60008091EB038F5F8093EB038F3130F085B14F
:103D700090E2892785B91092EB032C9808950E9450
:103D8000E310813079F48091EA038F5F8093EA0336
:103D9000853630F085B190E2892785B91092EA0323
:103DA0002C9808950E94E310811108952D980E9487
:103DB000B91DFBCF339B12C08091E903811117C05D
:103DC0008091E8038F5F8093E803833068F081E09F
:103DD0008093EF031092E80382E00DC01092E80395
:103DE0008091E903811107C01092EF0308951092AA
:103DF000E8038091E90381508093E903089580915D
:103E0000EF03089586B18295817091E08927089526
:103E1000329B14C01092E7031092E6038091E503F1
:103E2000813009F461C04C995BC08091E4038A3011
:103E300008F049C08F5F8093E40308950E94E31067
:103E4000811107C08091E7038F3078F48F5F8093F2
:103E5000E7030E94E3108130D1F48091E7038530BD
:103E6000D8F48F5F8093E703D9CF8091E603811167
:103E7000F0CF90E080E00E948C2881E08093E60300
:103E80000E94C81084E690E00E944D26E2CF0E9476
:103E90009428019611F7C2CF8091E6038111BECF1D
:103EA0000E94452680E00E94E6108FEF9FEF0E945F
:103EB0008C2881E08093E6030E94C81084E690E09D
:103EC0000E944D26ABCF8091E30381110DC081E0AC
:103ED0008093E3038093E5038CE00E94EC07089550
:103EE0001092E4031092E30308951B9B12C080918B
:103EF000E203811117C08091E1038F5F8093E1039A
:103F0000843168F081E08093EE031092E1038AE04F
:103F10000DC01092E1038091E203811107C010925D
:103F2000EE0308951092E1038091E20381508093A3
:103F3000E20308958091EE0308954D9B12C0809195
:103F4000E003811117C08091DF038F5F8093DF034F
:103F5000853068F081E08093ED031092DF0383E009
:103F60000DC01092DF038091E003811107C0109211
:103F7000ED0308951092DF038091E0038150809358
:103F8000E00308958091ED030895359B12C0809160
:103F9000DE03811117C08091DD038F5F8093DD0305
:103FA0008A3068F081E08093EC031092DD0385E0B5
:103FB0000DC01092DD038091DE03811107C01092C5
:103FC000EC0308951092DD038091DE03815080930D
:103FD000DE0308958091EC030895AF92BF92CF92D3
:103FE000DF92EF92FF920F931F93CF93DF93082FEF
:103FF000192FE62EF72ED42FC0E08C2F0E940D1122
:10400000FC011082CF5FC530C1F76801C0E0AD2E62
:104010000D2E000CBB08C6010E94EC17882389F006
:10402000CF5FCA151B0411F00CF05AC0F60185854C
:104030008B3339F08C3209F056C0FEE0CF0ED11C24
:10404000EACFCC2331F1C7016FEF6C0F27E0629FFD
:10405000B0011124660F771F9701225F3F4F620F57
:10406000731F98014DE0F901DC0101900D924A9512
:10407000E1F7FC011586225F3F4F0E9686179707E2
:1040800089F7F7E0CF9FC0011124880F991F080F0F
:10409000191F2C2F30E06D2FDD0F770B621B730B78
:1040A000AB01440F551F440F551F440F551F461BAE
:1040B000570B440F551FC901880F991F880F991F6F
:1040C000880F991F821B930B880F991F70E060E087
:1040D0008E0D9F1D0E94042E81E00E941C1105C0C0
:1040E00010E000E002C010E000E0C801DF91CF91D5
:1040F0001F910F91FF90EF90DF90CF90BF90AF9006
:1041000008950F931F93CF93DF93182F092FD62F66
:104110006130F9F4C0E003C0CF5FC530D1F08C2F1F
:104120000E940D11FC0120812B32B1F78C2F0E94CF
:104130000D11682F792F4DE050E0812F902F0E94B4
:10414000E52D892B49F78CE798E00E9407268D2FF3
:1041500005C082E798E00E94072680E0DF91CF91BA
:104160001F910F9108952F923F924F925F926F92FD
:104170007F928F929F92AF92BF92CF92DF92EF92F7
:10418000FF920F931F93CF93DF93CDB7DEB7C25A41
:10419000D1090FB6F894DEBF0FBECDBF082F192F7F
:1041A00044E050E06DE678E0C8010E94B92D892B0B
:1041B00009F478C044E050E061E578E0C8010E946D
:1041C000B92D892B09F45DC24DE050E064E278E03E
:1041D000C8010E94B92D892B09F4AAC347E050E019
:1041E0006CEC77E0C8010E94B92D892B09F4C1C39A
:1041F00045E050E060EA77E0C8010E94B92D892BC4
:1042000009F4D3C348E050E069E877E0C8010E94B0
:10421000B92D892B09F4E2C348E050E062E777E06A
:10422000C8010E94B92D892B09F4F1C347E050E081
:104230006CE577E0C8010E94B92D892B09F400C410
:1042400047E050E066E477E0C8010E94B92D892B71
:1042500009F087C00E941F11882341F00E94CD1DE4
:1042600061E00E948120813009F0FFC380E00E945C
:104270000D11682F792F45E0C80107960E94ED1FA8
:1042800081E00E941C110E94C8100E94CD1D682F61
:10429000792F88E397E00E9435168AE297E00E9422
:1042A00007265FC00E94CD1D61E00E948120882307
:1042B00039F00C5F1F4FF12CD12CEE24E39410C089
:1042C0000E94CD1D682F792F8FE598E00E9435164A
:1042D00048C00E94251109811A810F5F1F4FF39476
:1042E000F8018081882309F4D9C31A8309834CE03B
:1042F00050E06FE077E0C8010E94B92D892B09F0EA
:104300004AC0C8010C969A838983F8012485022E3D
:10431000000C330B205331092A303105B8F44AE040
:1043200050E0BE016F5F7F4F0E944A2C382F292F2B
:10433000862F972FA32FB22F8B3F9105A105B10593
:1043400028F4E981FA8120812B3319F280E00E9460
:1043500090100E94CD1D682F792F86E598E00E946D
:104360003516CE55DF4F0FB6F894DEBF0FBECDBF6A
:10437000DF91CF911F910F91FF90EF90DF90CF9041
:10438000BF90AF909F908F907F906F905F904F9075
:104390003F902F90089549E050E065E077E0C80134
:1043A0000E94B92D892B71F5C80109969A838983DA
:1043B000F8012185022E000C330B205331092A30DD
:1043C000310520F64AE050E0BE016F5F7F4F0E944A
:1043D0004A2C382F292F862F972FA32FB22F8B3FB0
:1043E0009105A105B10508F0B1CFE981FA812081DD
:1043F0002B3309F0ABCF0E94FB1009811A810F5FAC
:104400001F4F6DCF46E050E06EEF76E0C8010E948E
:10441000B92D892BD9F4F80186818033A9F0813335
:1044200009F094CF8E2D9801295F3F4F3A8329835D
:10443000F80197819B3309F089CF0E94E61009812A
:104440001A810F5F1F4F4BCF8D2DEDCF47E050E00E
:1044500066EF76E0C8010E94B92D892BD9F4F801E6
:1044600087818033A9F0813309F070CF8E2D9801B8
:10447000285F3F4F3A832983F80190859B3309F0E9
:1044800065CF0E94EF1009811A810F5F1F4F27CF60
:104490008D2DEDCF4AE050E06BEE76E0C8010E9432
:1044A000B92D892BD9F4F80182858033A9F08133A5
:1044B00009F04CCF8E2D9801255F3F4F3A83298319
:1044C000F80193859B3309F041CF0E94F5100981D3
:1044D0001A810F5F1F4F03CF8D2DEDCF46E050E0C7
:1044E00064EE76E0C8010E94B92D892BD9F4F80159
:1044F00086818033A9F0813309F028CF8E2D980171
:10450000295F3F4F3A832983F80197819B3309F054
:104510001DCF0E94D11009811A810F5F1F4FDFCE7E
:104520008D2DEDCF44E050E06FED76E0C8010E94A4
:10453000B92D892BD9F4F80184818033A9F0813316
:1045400009F004CF8E2D98012B5F3F4F3A832983CA
:10455000F80195819B3309F0F9CE0E94D7100981AB
:104560001A810F5F1F4FBBCE8D2DEDCF4DE050E078
:1045700061ED76E0C8010E94B92D892BD9F4F801CC
:1045800085858033A9F0813309F0E0CE8E2D980126
:10459000225F3F4F3A832983F80196859B3309F0C8
:1045A000D5CE0E94E01009811A810F5F1F4F97CE70
:1045B0008D2DEDCF4DE050E063EC76E0C8010E9418
:1045C000B92D892BD9F4F80185858033A9F0813381
:1045D00009F0BCCE8E2D9801225F3F4F3A8329838C
:1045E000F80196859B3309F0B1CE0E94E91009814C
:1045F0001A810F5F1F4F73CE8D2DEDCF49E050E034
:1046000069EB76E0C8010E94B92D892BD9F4F80135
:1046100081858033A9F0813309F098CE8E2D9801E1
:10462000265F3F4F3A832983F80192859B3309F037
:104630008DCE0E94281109811A810F5F1F4F4FCE26
:104640008D2DEDCF47E050E061EB76E0C8010E9490
:10465000B92D892B09F07ACEF8018781803309F4CE
:104660002BC2813309F072CEC80108969A838983E0
:1046700080858B3309F06ACE80E69AEE0E943A2656
:1046800025C20E94CD1D61E00E948120882301F196
:104690000C5F1F4F1982312CCE0101965C010F2E49
:1046A000F4E74F2EF6E05F2EF02D0F2EF1EA8F2E5D
:1046B000F6E09F2EF02D0F2EFDE9CF2EF6E0DF2E37
:1046C000F02D0F2EFBE96F2EF6E07F2EF02D5AC055
:1046D0000E94CD1D682F792F83E498E00E94351643
:1046E00040CE045F1F4F9F928F92FF92EF920E94E5
:1046F000A72EE80EF91E0F900F900F900F90212C0F
:10470000CF55DF4F19830883C15AD040122D812F16
:104710000E940D11FC0180818B3201F5812F0E94D6
:104720000D119F938F93DF92CF92FF92EF920E9491
:10473000A72EE80EF91E1F5F0F900F900F900F909D
:104740000F900F90153019F7CF55DF4F0881198161
:10475000C15AD040F1E0EF1AF10809C0212ECF551F
:10476000DF4F08811981C15AD0402110F3CF7F92C9
:104770006F92FF92EF920E94A72E0F900F900F90D2
:104780000F903394F8018081882309F477C1F501F3
:1047900001900020E9F7CF0101977C014CE050E047
:1047A00069EA76E0C8010E94B92D892B09F499CFF6
:1047B00049E050E061E976E0C8010E94B92D892BFB
:1047C000D9F14CE050E067E676E0C8010E94B92DCF
:1047D000892B09F444C04AE050E06BE476E0C8015C
:1047E0000E94B92D892B09F44FC04DE050E06FE2D3
:1047F00076E0C8010E94B92D892B09F45AC04BE01C
:1048000050E062E176E0C8010E94B92D892B09F4DD
:1048100065C049E050E069EF75E0C8010E94B92D1C
:10482000892B09F470C00E94CD1D682F792F82E377
:1048300098E00E94351695CD075F1F4F0E94FE102D
:104840001F928F935F924F92FF92EF920E94A72E3A
:104850000F900F900F900F900F900F9092CF045FDA
:104860001F4F0E9422111F928F9386E596E09F931F
:104870008F93FF92EF920E94A72E0F900F900F90B0
:104880000F900F900F907DCF065F1F4F0E94F81082
:104890001F928F938DE396E09F938F93FF92EF92F9
:1048A0000E94A72E0F900F900F900F900F900F90D7
:1048B00068CF035F1F4F0E94D4101F928F938EE129
:1048C00096E09F938F93FF92EF920E94A72E0F90F6
:1048D0000F900F900F900F900F9053CF055F1F4FC9
:1048E0000E94DA101F928F9383E096E09F938F933C
:1048F000FF92EF920E94A72E0F900F900F900F90B3
:104900000F900F903ECF075F1F4F0E942B111F92F9
:104910008F938CEE95E09F938F93FF92EF920E947E
:10492000A72E0F900F900F900F900F900F9029CF00
:104930000E94CD1D61E00E948120882389F080E0E3
:104940000E9416110E94C8100E94CD1D682F792F59
:1049500084ED97E00E94351681E00E94451B01CD51
:104960000E94CD1D682F792F86E198E00E943516B0
:10497000F8CC0E94CD1D61E00E948120882361F067
:104980000E94CD1D682F792F86EA97E00E94351688
:1049900081E00E94451BE5CC0E94CD1D682F792F38
:1049A0008EEB97E00E943516DCCC0E94CD1D61E0B5
:1049B0000E948120882349F00E94CD1D682F792F05
:1049C00087EC99E00E943516CCCC0E94CD1D682F53
:1049D000792F82E997E00E943516C3CC0E94CD1D45
:1049E00061E00E948120882349F00E94CD1D682F3C
:1049F000792F86E299E00E943516B3CC0E94CD1D36
:104A0000682F792F8BE797E00E943516AACC0E9479
:104A1000CD1D61E00E948120882349F00E94CD1DB8
:104A2000682F792F85E898E00E9435169ACC0E946D
:104A3000CD1D682F792F84E697E00E94351691CC22
:104A40000E94CD1D61E00E948120882329F00E94F0
:104A5000CD1D0E94E90A85CC0E94CD1D682F792FBB
:104A60008EE497E00E9435167CCC0E94CD1D682F05
:104A7000792F8CE197E00E94351673CC332009F42E
:104A800070CC0E94CD1D682F792FCE0101960E9417
:104A9000C81588E398E00E94072663CCFF2009F43C
:104AA00055CC0E94C8100E94CD1D682F792F8CE52F
:104AB00098E00E94351655CCC80108969A838983E0
:104AC00080858B3309F042CC0E94452609811A81EA
:104AD0000F5F1F4F04CC80E00E940D11682F792FCB
:104AE00041E089EC91E00E94ED1F81E00E941C11E1
:104AF00008951F921FB61F9211248F939F93809148
:104B0000F403813031F09F918F911F901FBE1F9051
:104B100018958091F3039FEF980F8130E1F4809115
:104B2000F0039091F10380FF19C05B9A8091F0032C
:104B30009091F103969587959093F1038093F003FC
:104B40008091F20381508093F20393E0811103C0BE
:104B50001092F40393E09093F303D5CF5B98E6CFE4
:104B60001092F4035B9A539A9FB7F8948FE1809365
:104B7000B30082E08093B0008093B100E0E7F0E002
:104B80008081826080831092B2009FBF08959091CF
:104B9000F40381E0913009F080E008959091F403EE
:104BA0009130E1F393E09093F3039AE09093F20352
:104BB000880F990B92609093F1038093F00381E04A
:104BC0008093F4030895CF93DF93C82FD92F888162
:104BD000882331F021960E94CE2589918111FBCF47
:104BE000DF91CF910895CF93DF93C82FD92F88817C
:104BF000882331F021960E94CE2589918111FBCF27
:104C000088ED91E00E94E325DF91CF910895CF9345
:104C1000DF93E82FF92FEF0121968491882339F053
:104C20000E94CE25FE01849121968111F9CF88ED55
:104C300091E00E94E325DF91CF910895F8941092BE
:104C40008000E1E8F0E0108210928500109284006C
:104C500087E490E090938900809388008081886049
:104C60008083808185608083EFE6F0E080818260D0
:104C700080830895F89421E0209309048093070429
:104C800090930804299A7894089510920904109238
:104C900008041092070429980895F89421E02093BD
:104CA000060480930404909305042A9A7894089546
:104CB0001F920F920FB60F9211242F933F934F9391
:104CC0005F936F937F938F939F93AF93BF93EF9374
:104CD000FF930E94AC1E0E94081F0E94DA1E0E94D1
:104CE000751F0E949D1F0E94C51F80910604882386
:104CF00069F080910404909105048A30910508F4CC
:104D00004FC00A979093050480930404809109048E
:104D10008823D1F080910704909108048A3091058E
:104D200008F446C00A979093080480930704809182
:104D3000F5038F5F8093F503883230F085B192E000
:104D4000892785B91092F50380911204909113047C
:104D5000A0911404B09115040A96A11DB11D809371
:104D6000120490931304A0931404B093150480913B
:104D7000F7038F5F843608F58093F703A895FF91BA
:104D8000EF91BF91AF919F918F917F916F915F91C3
:104D90004F913F912F910F900FBE0F901F9018953C
:104DA0001092050410920404109206042A98AECFC3
:104DB0000E9445261092F503C7CF1092F703809109
:104DC0000E0490910F04A0911004B091110401966B
:104DD000A11DB11D80930E0490930F04A0931004A5
:104DE000B09311048091FC039091FD03A091FE0308
:104DF000B091FF030196A11DB11D8093FC03909318
:104E0000FD03A093FE03B093FF03809103019091F3
:104E100004018F3F980729F0019690930401809335
:104E2000030180910204909103040196909303047E
:104E3000809302048091F6038F5F8093F6030E94B3
:104E40002C0C8091F8039091F903A091FA03B09192
:104E5000FB030196A11DB11D8093F8039093F90304
:104E6000A093FA03B093FB038091F6038C33A8F070
:104E70001092F60380910A0490910B04A0910C0407
:104E8000B0910D040196A11DB11D80930A04909369
:104E90000B04A0930C04B0930D0480910204909134
:104EA00003048935924008F469CF80910004909101
:104EB00001048F3F980729F0019690930104809395
:104EC000000481E00E94451B59CFCF93DF9300D0AF
:104ED00000D0CDB7DEB78FB7F8942091120430918F
:104EE0001304409114045091150429833A834B8391
:104EF0005C838FBF69817A818B819C810F900F9039
:104F00000F900F90DF91CF910895CF93DF9300D052
:104F100000D0CDB7DEB78FB7F89420910E04309152
:104F20000F04409110045091110429833A834B835C
:104F30005C838FBF69817A818B819C810F900F90F8
:104F40000F900F90DF91CF910895CF93DF9300D012
:104F500000D0CDB7DEB78FB7F89420910A04309116
:104F60000B0440910C0450910D0429833A834B8328
:104F70005C838FBF69817A818B819C810F900F90B8
:104F80000F900F90DF91CF9108958FB7F894109202
:104F90000304109202048FBF0895CF92DF92EF9224
:104FA000FF92CF93DF9300D000D0CDB7DEB7E82ECD
:104FB000F92E0E946527DC01CB018E0D9F1DA11DDE
:104FC000B11D6C017D0106C00E940D120E94DA28FD
:104FD0008111FACF0E9465276C157D058E059F050E
:104FE000A8F30F900F900F900F90DF91CF91FF904B
:104FF000EF90DF90CF900895CF92DF92EF92FF92E3
:10500000CF93DF9300D000D0CDB7DEB7F82E0E944B
:105010008527DC01CB018F0D911DA11DB11D6C01F8
:105020007D0106C00E940D120E94DA288111FACF7C
:105030000E9485276C157D058E059F05A8F30F90AE
:105040000F900F900F90DF91CF91FF90EF90DF9036
:10505000CF900895462F572F682F792F411551056E
:105060006105710549F082E08A95F1F700C0415071
:10507000510961097109B9F708952FB7F89490E0C3
:10508000B0E0A0E08093F8039093F903A093FA03B3
:10509000B093FB032FBF0895CF93DF9300D000D0D0
:1050A000CDB7DEB78FB7F8942091F8033091F903AC
:1050B0004091FA035091FB0329833A834B835C832D
:1050C0008FBF69817A818B819C810F900F900F90A7
:1050D0000F90DF91CF910895CF93DF9300D000D050
:1050E000CDB7DEB78FB7F8942091FC033091FD0364
:1050F0004091FE035091FF0329833A834B835C83E5
:105100008FBF69817A818B819C810F900F900F9066
:105110000F90DF91CF9108952FB7F89480930301FA
:10512000909304012FBF08952FB7F8948091030145
:10513000909104012FBF08951092C5008FE28093D3
:10514000C40086E08093C20088E98093C100109279
:1051500016041092170408958F938FB78F939F931F
:10516000EF93FF93F8949091C6008091C0008871EE
:1051700061F4E0911704F0E0E85EFB4F90838091CA
:1051800017048F5F8F77809317047894FF91EF91C6
:105190009F918F918FBF8F911895E0911604F0E049
:1051A000E85EFB4F809116048F5F8F778093160423
:1051B00080810895209117049091160481E02913AD
:1051C000089580E0FDCFCF93DF93A82FB92F2FEF65
:1051D000260F662389F030E02F5F3F4F2A0F3B1FD9
:1051E000E0ECF0E0C6ECD0E0808185FFFDCF8D9152
:1051F0008883A217B307C1F7DF91CF910895CF93AA
:10520000DF93A82FB92F9C91992361F01196E0ECC0
:10521000F0E0C6ECD0E0808185FFFDCF98839D91C2
:105220009111F9CFDF91CF910895E0ECF0E09081FA
:1052300095FFFDCF8093C6000895CF93DF93E82FAD
:10524000F92FEF0121968491882339F00E941529C6
:10525000FE01849121968111F9CFDF91CF910895BC
:1052600010921704109216040895CF92DF92EF92D5
:10527000FF920F931F93CF93DF9300D000D0CDB751
:10528000DEB70E94852769837A838B839C836B01B9
:105290007C0183E0C80ED11CE11CF11C8091C00090
:1052A0008823A4F406EC10E00E94852769837A83A2
:1052B0008B839C83C616D706E806F90638F0D8011A
:1052C0008C91E0ECF0E08081882374F30F900F90D4
:1052D0000F900F90DF91CF911F910F91FF90EF9062
:1052E000DF90CF900895AA1BBB1B51E107C0AA1FF6
:1052F000BB1FA617B70710F0A61BB70B881F991F77
:105300005A95A9F780959095BC01CD01089597FB1A
:10531000072E16F4009407D077FD09D00E94732958
:1053200007FC05D03EF4909581959F4F08957095A8
:1053300061957F4F0895A1E21A2EAA1BBB1BFD01A8
:105340000DC0AA1FBB1FEE1FFF1FA217B307E40764
:10535000F50720F0A21BB30BE40BF50B661F771FBC
:10536000881F991F1A9469F760957095809590959C
:105370009B01AC01BD01CF010895052E97FB1EF4E2
:1053800000940E94D42957FD07D00E949B2907FC56
:1053900003D04EF40C94D429509540953095219526
:1053A0003F4F4F4F5F4F0895909580957095619551
:1053B0007F4F8F4F9F4F0895EE0FFF1F0590F49181
:1053C000E02D0994A29FB001B39FC001A39F700D6F
:1053D000811D1124911DB29F700D811D1124911DFD
:1053E00008950E94F8296894B1110C94872A0895B1
:1053F0000E946C2A88F09F5798F0B92F9927B751CF
:10540000B0F0E1F0660F771F881F991F1AF0BA9568
:10541000C9F714C0B13091F00E94862AB1E0089516
:105420000C94862A672F782F8827B85F39F0B93F08
:10543000CCF3869577956795B395D9F73EF490951B
:105440008095709561957F4F8F4F9F4F0895E89499
:1054500009C097FB3EF490958095709561957F4FBC
:105460008F4F9F4F9923A9F0F92F96E9BB2793956A
:10547000F695879577956795B795F111F8CFFAF47A
:10548000BB0F11F460FF1BC06F5F7F4F8F4F9F4FAB
:1054900016C0882311F096E911C0772321F09EE809
:1054A000872F762F05C0662371F096E8862F70E06F
:1054B00060E02AF09A95660F771F881FDAF7880F49
:1054C0009695879597F9089557FD9058440F551F65
:1054D00059F05F3F71F04795880F97FB991F61F076
:1054E0009F3F79F087950895121613061406551FED
:1054F000F2CF4695F1DF08C0161617061806991F59
:10550000F1CF86957105610508940895E894BB274D
:1055100066277727CB0197F908950E94A02A0C945B
:10552000112B0E94032B38F00E940A2B20F09523A8
:1055300011F00C94FA2A0C94002B11240C94872A55
:105540000E94642A70F3959FC1F3950F50E0551F98
:10555000629FF001729FBB27F00DB11D639FAA27C8
:10556000F00DB11DAA1F649F6627B00DA11D661F17
:10557000829F2227B00DA11D621F739FB00DA11D38
:10558000621F839FA00D611D221F749F3327A00DF2
:10559000611D231F849F600D211D822F762F6A2F8E
:1055A00011249F5750409AF0F1F088234AF0EE0FF3
:1055B000FF1FBB1F661F771F881F91505040A9F720
:1055C0009E3F510580F00C94FA2A0C94872A5F3F85
:1055D000E4F3983ED4F3869577956795B795F7955C
:1055E000E7959F5FC1F7FE2B880F911D96958795D4
:1055F00097F9089597F99F6780E870E060E0089553
:105600009FEF80EC089500240A94161617061806DA
:105610000906089500240A941216130614060506B6
:105620000895092E0394000C11F4882352F0BB0F47
:1056300040F4BF2B11F460FF04C06F5F7F4F8F4FAA
:105640009F4F08950F931F93CF93DF939C01029771
:1056500010F422E030E0E0919804F091990490E099
:1056600080E0B0E0A0E0309791F4009709F445C0E5
:10567000821B930B84309105B8F58A819B8161155B
:10568000710569F1FB0193838283FE0111C04081A2
:1056900051810281138142175307F0F042175307DB
:1056A00099F4109761F012960C93129713961C932D
:1056B0003296CF01DF91CF911F910F910895009302
:1056C000980410939904F4CF009719F048175907DC
:1056D00018F4CA01BD01EF01DF01F801C4CF9093B6
:1056E000990480939804D1CFFE01E80FF91F21930C
:1056F0003193029799838883DCCF80919A049091AB
:105700009B04892B41F480910701909108019093AB
:105710009B0480939A048091050190910601009763
:1057200041F48DB79EB74091090150910A01841B45
:10573000950B40919A0450919B044817590708F023
:10574000B8CF841B950B8217930708F4B2CFB90129
:105750006E5F7F4F8617970708F4ABCF640F751FF6
:1057600070939B0460939A04FA0121933193A1CF23
:10577000CF93DF939C010097E9F0FC0132971382ED
:105780001282C0919804D0919904DE0190E080E0EB
:105790002097A1F480819181280F391F80919A046C
:1057A00090919B048217930709F067C0F0939B04C4
:1057B000E0939A04DF91CF910895DA01AE17BF0705
:1057C00008F041C012964D915C911397CD0141159F
:1057D000510599F7DC011396FC93EE9312974D91C6
:1057E0005D91A40FB51FEA17FB0781F42081318179
:1057F0002E5F3F4F240F351FDC0111963C932E93F3
:105800002281338113963C932E931297B0E0A0E04F
:105810008A819B810097B1F5FE0181919191E80FFA
:10582000F91F80919A0490919B048E179F0711F69F
:10583000109759F51092990410929804D0939B04F4
:10584000C0939A04B7CFB383A28340815181240FC0
:10585000351FA217B30771F44E5F5F4F2D913C9136
:105860001197240F351F3183208312962D913C917F
:1058700033832283009709F0ADCFF0939904E0932E
:10588000980498CFDE01EC01C3CF13961C921E92B0
:105890001297D4CFA6E0B0E0E0E5FCE20C94C4316E
:1058A0008D839E836B017A016115710529F0ED816D
:1058B000FE81DB01ED93FC93E114F10429F0C701B3
:1058C0000297839708F0A6C0AD80BE8095012F5F38
:1058D0003F4F3E832D83D5011C91812F90E00E9484
:1058E000B02D892B89F71D32B1F4ED81FE81108135
:1058F00095012E5F3F4F3E832D8301E0E114F104BB
:1059000009F401C1F0E1EF16F10409F004C110330C
:1059100069F0E02F1DC01B3239F4AD81BE811C91AE
:10592000F5013296FE83ED8300E0E8CFAD81BE81C4
:105930008C918F7D883509F072C011961C9111975A
:105940001296BE83AD83E02FE26050E1E52EF12C8C
:1059500088248A94982CA82C8FE0B82E81C0E02F40
:1059600010E329E9822E982CA82C29E1B22E78C0C8
:10597000E02F10E3EDCFE02F88248A94982CA82CF8
:105980003FE1B32E6DC0E02F10E348E0E42EF12C90
:10599000F3CF8FEFB2C0C114D10449F0882379F15D
:1059A0002D813E8121503109F6013183208300236E
:1059B00079F029813A814B815C81509540953095F1
:1059C00021953F4F4F4F5F4F29833A834B835C8331
:1059D0008F3F69F482E290E090939F0480939E044D
:1059E0008FEF9FEFDC0189839A83AB83BC8369814E
:1059F0007A818B819C812696E0E10C94E031E1FF75
:105A000006C0ED81FE813297D601ED93FC93002311
:105A100071F3CFCF19821A821B821C82E8CFE11466
:105A2000F10409F4B0CFBAE0EB16F10409F497CF12
:105A3000E0E1EE16F10409F49BCF10E3F8E0EF1675
:105A4000F10409F498CF6FEF7FEFCB0197010F2C92
:105A5000000C440B550B0E949B2949015A01E02F71
:105A600080E019821A821B821C8227010F2C000CF5
:105A700066087708F0EDF10FFA3060F09FEB910FB8
:105A8000F9EC9A3130F09FE9910F9A3108F083CF09
:105A9000F9EAF10FFE151F040CF07DCF8F3F69F17D
:105AA00029813A814B815C8182169306A406B50652
:105AB00008F46FCFA301920169817A818B819C8167
:105AC0000E94A73169837A838B839C838F2F90E018
:105AD000B0E0A0E029813A814B815C81280F391F19
